{
	"contracts/ERC20.sol": {
		"ERC20": {
			"abi": [
				{
					"inputs": [
						{
							"internalType": "string",
							"name": "name_",
							"type": "string"
						},
						{
							"internalType": "string",
							"name": "symbol_",
							"type": "string"
						}
					],
					"stateMutability": "nonpayable",
					"type": "constructor"
				},
				{
					"anonymous": false,
					"inputs": [
						{
							"indexed": true,
							"internalType": "address",
							"name": "owner",
							"type": "address"
						},
						{
							"indexed": true,
							"internalType": "address",
							"name": "spender",
							"type": "address"
						},
						{
							"indexed": false,
							"internalType": "uint256",
							"name": "value",
							"type": "uint256"
						}
					],
					"name": "Approval",
					"type": "event"
				},
				{
					"anonymous": false,
					"inputs": [
						{
							"indexed": true,
							"internalType": "address",
							"name": "from",
							"type": "address"
						},
						{
							"indexed": true,
							"internalType": "address",
							"name": "to",
							"type": "address"
						},
						{
							"indexed": false,
							"internalType": "uint256",
							"name": "value",
							"type": "uint256"
						}
					],
					"name": "Transfer",
					"type": "event"
				},
				{
					"inputs": [
						{
							"internalType": "address",
							"name": "owner",
							"type": "address"
						},
						{
							"internalType": "address",
							"name": "spender",
							"type": "address"
						}
					],
					"name": "allowance",
					"outputs": [
						{
							"internalType": "uint256",
							"name": "",
							"type": "uint256"
						}
					],
					"stateMutability": "view",
					"type": "function"
				},
				{
					"inputs": [
						{
							"internalType": "address",
							"name": "spender",
							"type": "address"
						},
						{
							"internalType": "uint256",
							"name": "amount",
							"type": "uint256"
						}
					],
					"name": "approve",
					"outputs": [
						{
							"internalType": "bool",
							"name": "",
							"type": "bool"
						}
					],
					"stateMutability": "nonpayable",
					"type": "function"
				},
				{
					"inputs": [
						{
							"internalType": "address",
							"name": "account",
							"type": "address"
						}
					],
					"name": "balanceOf",
					"outputs": [
						{
							"internalType": "uint256",
							"name": "",
							"type": "uint256"
						}
					],
					"stateMutability": "view",
					"type": "function"
				},
				{
					"inputs": [],
					"name": "decimals",
					"outputs": [
						{
							"internalType": "uint8",
							"name": "",
							"type": "uint8"
						}
					],
					"stateMutability": "view",
					"type": "function"
				},
				{
					"inputs": [
						{
							"internalType": "address",
							"name": "spender",
							"type": "address"
						},
						{
							"internalType": "uint256",
							"name": "amount",
							"type": "uint256"
						}
					],
					"name": "decreaseAllowance",
					"outputs": [
						{
							"internalType": "bool",
							"name": "",
							"type": "bool"
						}
					],
					"stateMutability": "nonpayable",
					"type": "function"
				},
				{
					"inputs": [
						{
							"internalType": "address",
							"name": "spender",
							"type": "address"
						},
						{
							"internalType": "uint256",
							"name": "",
							"type": "uint256"
						},
						{
							"internalType": "uint256",
							"name": "amount",
							"type": "uint256"
						}
					],
					"name": "increaseAllowance",
					"outputs": [
						{
							"internalType": "bool",
							"name": "",
							"type": "bool"
						}
					],
					"stateMutability": "nonpayable",
					"type": "function"
				},
				{
					"inputs": [],
					"name": "name",
					"outputs": [
						{
							"internalType": "string",
							"name": "",
							"type": "string"
						}
					],
					"stateMutability": "view",
					"type": "function"
				},
				{
					"inputs": [],
					"name": "symbol",
					"outputs": [
						{
							"internalType": "string",
							"name": "",
							"type": "string"
						}
					],
					"stateMutability": "view",
					"type": "function"
				},
				{
					"inputs": [],
					"name": "totalSupply",
					"outputs": [
						{
							"internalType": "uint256",
							"name": "",
							"type": "uint256"
						}
					],
					"stateMutability": "view",
					"type": "function"
				},
				{
					"inputs": [
						{
							"internalType": "address",
							"name": "to",
							"type": "address"
						},
						{
							"internalType": "uint256",
							"name": "amount",
							"type": "uint256"
						}
					],
					"name": "transfer",
					"outputs": [
						{
							"internalType": "bool",
							"name": "",
							"type": "bool"
						}
					],
					"stateMutability": "nonpayable",
					"type": "function"
				},
				{
					"inputs": [
						{
							"internalType": "address",
							"name": "from",
							"type": "address"
						},
						{
							"internalType": "address",
							"name": "to",
							"type": "address"
						},
						{
							"internalType": "uint256",
							"name": "amount",
							"type": "uint256"
						}
					],
					"name": "transferFrom",
					"outputs": [
						{
							"internalType": "bool",
							"name": "",
							"type": "bool"
						}
					],
					"stateMutability": "nonpayable",
					"type": "function"
				}
			],
			"devdoc": {
				"kind": "dev",
				"methods": {
					"allowance(address,address)": {
						"details": "Returns the remaining number of tokens that `spender` will be allowed to spend on behalf of `owner` through {transferFrom}. This is zero by default. This value changes when {approve} or {transferFrom} are called."
					},
					"approve(address,uint256)": {
						"details": "Sets `amount` as the allowance of `spender` over the caller's tokens. Returns a boolean value indicating whether the operation succeeded. IMPORTANT: Beware that changing an allowance with this method brings the risk that someone may use both the old and the new allowance by unfortunate transaction ordering. One possible solution to mitigate this race condition is to first reduce the spender's allowance to 0 and set the desired value afterwards: https://github.com/ethereum/EIPs/issues/20#issuecomment-263524729 Emits an {Approval} event."
					},
					"balanceOf(address)": {
						"details": "Returns the amount of tokens owned by `account`."
					},
					"decimals()": {
						"details": "Returns the decimals places of the token."
					},
					"name()": {
						"details": "Returns the name of the token."
					},
					"symbol()": {
						"details": "Returns the symbol of the token."
					},
					"totalSupply()": {
						"details": "Returns the amount of tokens in existence."
					}
				},
				"version": 1
			},
			"evm": {
				"assembly": "    /* \"contracts/ERC20.sol\":247:4839  contract ERC20 is IERC20, IERC20Metadata, Context {... */\n  mstore(0x40, 0x80)\n    /* \"contracts/ERC20.sol\":513:628  constructor(string memory name_, string memory symbol_){... */\n  callvalue\n  dup1\n  iszero\n  tag_1\n  jumpi\n  0x00\n  dup1\n  revert\ntag_1:\n  pop\n  mload(0x40)\n  sub(codesize, bytecodeSize)\n  dup1\n  bytecodeSize\n  dup4\n  codecopy\n  dup2\n  add\n  0x40\n  dup2\n  swap1\n  mstore\n  tag_2\n  swap2\n  tag_3\n  jump\t// in\ntag_2:\n    /* \"contracts/ERC20.sol\":579:584  _name */\n  0x02\n    /* \"contracts/ERC20.sol\":579:592  _name = name_ */\n  tag_6\n    /* \"contracts/ERC20.sol\":587:592  name_ */\n  dup4\n    /* \"contracts/ERC20.sol\":579:584  _name */\n  dup3\n    /* \"contracts/ERC20.sol\":579:592  _name = name_ */\n  tag_7\n  jump\t// in\ntag_6:\n  pop\n    /* \"contracts/ERC20.sol\":603:610  _symbol */\n  0x03\n    /* \"contracts/ERC20.sol\":603:620  _symbol = symbol_ */\n  tag_8\n    /* \"contracts/ERC20.sol\":613:620  symbol_ */\n  dup3\n    /* \"contracts/ERC20.sol\":603:610  _symbol */\n  dup3\n    /* \"contracts/ERC20.sol\":603:620  _symbol = symbol_ */\n  tag_7\n  jump\t// in\ntag_8:\n  pop\n    /* \"contracts/ERC20.sol\":513:628  constructor(string memory name_, string memory symbol_){... */\n  pop\n  pop\n    /* \"contracts/ERC20.sol\":247:4839  contract ERC20 is IERC20, IERC20Metadata, Context {... */\n  jump(tag_16)\n    /* \"#utility.yul\":14:141   */\ntag_10:\n    /* \"#utility.yul\":75:85   */\n  0x4e487b71\n    /* \"#utility.yul\":70:73   */\n  0xe0\n    /* \"#utility.yul\":66:86   */\n  shl\n    /* \"#utility.yul\":63:64   */\n  0x00\n    /* \"#utility.yul\":56:87   */\n  mstore\n    /* \"#utility.yul\":106:110   */\n  0x41\n    /* \"#utility.yul\":103:104   */\n  0x04\n    /* \"#utility.yul\":96:111   */\n  mstore\n    /* \"#utility.yul\":130:134   */\n  0x24\n    /* \"#utility.yul\":127:128   */\n  0x00\n    /* \"#utility.yul\":120:135   */\n  revert\n    /* \"#utility.yul\":146:986   */\ntag_11:\n    /* \"#utility.yul\":200:205   */\n  0x00\n    /* \"#utility.yul\":253:256   */\n  dup3\n    /* \"#utility.yul\":246:250   */\n  0x1f\n    /* \"#utility.yul\":238:244   */\n  dup4\n    /* \"#utility.yul\":234:251   */\n  add\n    /* \"#utility.yul\":230:257   */\n  slt\n    /* \"#utility.yul\":220:275   */\n  tag_19\n  jumpi\n    /* \"#utility.yul\":271:272   */\n  0x00\n    /* \"#utility.yul\":268:269   */\n  dup1\n    /* \"#utility.yul\":261:273   */\n  revert\n    /* \"#utility.yul\":220:275   */\ntag_19:\n    /* \"#utility.yul\":294:307   */\n  dup2\n  mload\n  sub(shl(0x40, 0x01), 0x01)\n    /* \"#utility.yul\":356:366   */\n  dup1\n  dup3\n  gt\n    /* \"#utility.yul\":353:389   */\n  iszero\n  tag_21\n  jumpi\n    /* \"#utility.yul\":369:387   */\n  tag_21\n  tag_10\n  jump\t// in\ntag_21:\n    /* \"#utility.yul\":444:446   */\n  0x40\n    /* \"#utility.yul\":438:447   */\n  mload\n    /* \"#utility.yul\":412:414   */\n  0x1f\n    /* \"#utility.yul\":498:511   */\n  dup4\n  add\n  not(0x1f)\n    /* \"#utility.yul\":494:516   */\n  swap1\n  dup2\n  and\n    /* \"#utility.yul\":518:520   */\n  0x3f\n    /* \"#utility.yul\":490:521   */\n  add\n    /* \"#utility.yul\":486:526   */\n  and\n    /* \"#utility.yul\":474:527   */\n  dup2\n  add\n  swap1\n    /* \"#utility.yul\":542:560   */\n  dup3\n  dup3\n  gt\n    /* \"#utility.yul\":562:584   */\n  dup2\n  dup4\n  lt\n    /* \"#utility.yul\":539:585   */\n  or\n    /* \"#utility.yul\":536:608   */\n  iszero\n  tag_23\n  jumpi\n    /* \"#utility.yul\":588:606   */\n  tag_23\n  tag_10\n  jump\t// in\ntag_23:\n    /* \"#utility.yul\":628:638   */\n  dup2\n    /* \"#utility.yul\":624:626   */\n  0x40\n    /* \"#utility.yul\":617:639   */\n  mstore\n    /* \"#utility.yul\":663:665   */\n  dup4\n    /* \"#utility.yul\":655:661   */\n  dup2\n    /* \"#utility.yul\":648:666   */\n  mstore\n    /* \"#utility.yul\":685:689   */\n  0x20\n    /* \"#utility.yul\":675:689   */\n  swap3\n  pop\n    /* \"#utility.yul\":730:733   */\n  dup7\n    /* \"#utility.yul\":725:727   */\n  dup4\n    /* \"#utility.yul\":720:722   */\n  dup6\n    /* \"#utility.yul\":712:718   */\n  dup9\n    /* \"#utility.yul\":708:723   */\n  add\n    /* \"#utility.yul\":704:728   */\n  add\n    /* \"#utility.yul\":701:734   */\n  gt\n    /* \"#utility.yul\":698:751   */\n  iszero\n  tag_24\n  jumpi\n    /* \"#utility.yul\":747:748   */\n  0x00\n    /* \"#utility.yul\":744:745   */\n  dup1\n    /* \"#utility.yul\":737:749   */\n  revert\n    /* \"#utility.yul\":698:751   */\ntag_24:\n    /* \"#utility.yul\":769:770   */\n  0x00\n    /* \"#utility.yul\":760:770   */\n  swap2\n  pop\n    /* \"#utility.yul\":779:912   */\ntag_25:\n    /* \"#utility.yul\":793:795   */\n  dup4\n    /* \"#utility.yul\":790:791   */\n  dup3\n    /* \"#utility.yul\":787:796   */\n  lt\n    /* \"#utility.yul\":779:912   */\n  iszero\n  tag_27\n  jumpi\n    /* \"#utility.yul\":881:895   */\n  dup6\n  dup3\n  add\n    /* \"#utility.yul\":877:900   */\n  dup4\n  add\n    /* \"#utility.yul\":871:901   */\n  mload\n    /* \"#utility.yul\":850:864   */\n  dup2\n  dup4\n  add\n    /* \"#utility.yul\":846:869   */\n  dup5\n  add\n    /* \"#utility.yul\":839:902   */\n  mstore\n    /* \"#utility.yul\":804:814   */\n  swap1\n  dup3\n  add\n  swap1\n    /* \"#utility.yul\":779:912   */\n  jump(tag_25)\ntag_27:\n    /* \"#utility.yul\":954:955   */\n  0x00\n    /* \"#utility.yul\":932:947   */\n  swap4\n  dup2\n  add\n    /* \"#utility.yul\":928:952   */\n  swap1\n  swap3\n  add\n    /* \"#utility.yul\":921:956   */\n  swap3\n  swap1\n  swap3\n  mstore\n    /* \"#utility.yul\":936:942   */\n  swap5\n    /* \"#utility.yul\":146:986   */\n  swap4\n  pop\n  pop\n  pop\n  pop\n  jump\t// out\n    /* \"#utility.yul\":991:1553   */\ntag_3:\n    /* \"#utility.yul\":1090:1096   */\n  0x00\n    /* \"#utility.yul\":1098:1104   */\n  dup1\n    /* \"#utility.yul\":1151:1153   */\n  0x40\n    /* \"#utility.yul\":1139:1148   */\n  dup4\n    /* \"#utility.yul\":1130:1137   */\n  dup6\n    /* \"#utility.yul\":1126:1149   */\n  sub\n    /* \"#utility.yul\":1122:1154   */\n  slt\n    /* \"#utility.yul\":1119:1171   */\n  iszero\n  tag_29\n  jumpi\n    /* \"#utility.yul\":1167:1168   */\n  0x00\n    /* \"#utility.yul\":1164:1165   */\n  dup1\n    /* \"#utility.yul\":1157:1169   */\n  revert\n    /* \"#utility.yul\":1119:1171   */\ntag_29:\n    /* \"#utility.yul\":1194:1210   */\n  dup3\n  mload\n  sub(shl(0x40, 0x01), 0x01)\n    /* \"#utility.yul\":1259:1273   */\n  dup1\n  dup3\n  gt\n    /* \"#utility.yul\":1256:1290   */\n  iszero\n  tag_30\n  jumpi\n    /* \"#utility.yul\":1286:1287   */\n  0x00\n    /* \"#utility.yul\":1283:1284   */\n  dup1\n    /* \"#utility.yul\":1276:1288   */\n  revert\n    /* \"#utility.yul\":1256:1290   */\ntag_30:\n    /* \"#utility.yul\":1309:1370   */\n  tag_31\n    /* \"#utility.yul\":1362:1369   */\n  dup7\n    /* \"#utility.yul\":1353:1359   */\n  dup4\n    /* \"#utility.yul\":1342:1351   */\n  dup8\n    /* \"#utility.yul\":1338:1360   */\n  add\n    /* \"#utility.yul\":1309:1370   */\n  tag_11\n  jump\t// in\ntag_31:\n    /* \"#utility.yul\":1299:1370   */\n  swap4\n  pop\n    /* \"#utility.yul\":1416:1418   */\n  0x20\n    /* \"#utility.yul\":1405:1414   */\n  dup6\n    /* \"#utility.yul\":1401:1419   */\n  add\n    /* \"#utility.yul\":1395:1420   */\n  mload\n    /* \"#utility.yul\":1379:1420   */\n  swap2\n  pop\n    /* \"#utility.yul\":1445:1447   */\n  dup1\n    /* \"#utility.yul\":1435:1443   */\n  dup3\n    /* \"#utility.yul\":1432:1448   */\n  gt\n    /* \"#utility.yul\":1429:1465   */\n  iszero\n  tag_32\n  jumpi\n    /* \"#utility.yul\":1461:1462   */\n  0x00\n    /* \"#utility.yul\":1458:1459   */\n  dup1\n    /* \"#utility.yul\":1451:1463   */\n  revert\n    /* \"#utility.yul\":1429:1465   */\ntag_32:\n  pop\n    /* \"#utility.yul\":1484:1547   */\n  tag_33\n    /* \"#utility.yul\":1539:1546   */\n  dup6\n    /* \"#utility.yul\":1528:1536   */\n  dup3\n    /* \"#utility.yul\":1517:1526   */\n  dup7\n    /* \"#utility.yul\":1513:1537   */\n  add\n    /* \"#utility.yul\":1484:1547   */\n  tag_11\n  jump\t// in\ntag_33:\n    /* \"#utility.yul\":1474:1547   */\n  swap2\n  pop\n  pop\n    /* \"#utility.yul\":991:1553   */\n  swap3\n  pop\n  swap3\n  swap1\n  pop\n  jump\t// out\n    /* \"#utility.yul\":1558:1938   */\ntag_12:\n    /* \"#utility.yul\":1637:1638   */\n  0x01\n    /* \"#utility.yul\":1633:1645   */\n  dup2\n  dup2\n  shr\n  swap1\n    /* \"#utility.yul\":1680:1692   */\n  dup3\n  and\n  dup1\n    /* \"#utility.yul\":1701:1762   */\n  tag_35\n  jumpi\n    /* \"#utility.yul\":1755:1759   */\n  0x7f\n    /* \"#utility.yul\":1747:1753   */\n  dup3\n    /* \"#utility.yul\":1743:1760   */\n  and\n    /* \"#utility.yul\":1733:1760   */\n  swap2\n  pop\n    /* \"#utility.yul\":1701:1762   */\ntag_35:\n    /* \"#utility.yul\":1808:1810   */\n  0x20\n    /* \"#utility.yul\":1800:1806   */\n  dup3\n    /* \"#utility.yul\":1797:1811   */\n  lt\n    /* \"#utility.yul\":1777:1795   */\n  dup2\n    /* \"#utility.yul\":1774:1812   */\n  sub\n    /* \"#utility.yul\":1771:1932   */\n  tag_36\n  jumpi\n    /* \"#utility.yul\":1854:1864   */\n  0x4e487b71\n    /* \"#utility.yul\":1849:1852   */\n  0xe0\n    /* \"#utility.yul\":1845:1865   */\n  shl\n    /* \"#utility.yul\":1842:1843   */\n  0x00\n    /* \"#utility.yul\":1835:1866   */\n  mstore\n    /* \"#utility.yul\":1889:1893   */\n  0x22\n    /* \"#utility.yul\":1886:1887   */\n  0x04\n    /* \"#utility.yul\":1879:1894   */\n  mstore\n    /* \"#utility.yul\":1917:1921   */\n  0x24\n    /* \"#utility.yul\":1914:1915   */\n  0x00\n    /* \"#utility.yul\":1907:1922   */\n  revert\n    /* \"#utility.yul\":1771:1932   */\ntag_36:\n  pop\n    /* \"#utility.yul\":1558:1938   */\n  swap2\n  swap1\n  pop\n  jump\t// out\n    /* \"#utility.yul\":2069:2614   */\ntag_14:\n    /* \"#utility.yul\":2171:2173   */\n  0x1f\n    /* \"#utility.yul\":2166:2169   */\n  dup3\n    /* \"#utility.yul\":2163:2174   */\n  gt\n    /* \"#utility.yul\":2160:2608   */\n  iszero\n  tag_39\n  jumpi\n    /* \"#utility.yul\":2207:2208   */\n  0x00\n    /* \"#utility.yul\":2232:2237   */\n  dup2\n    /* \"#utility.yul\":2228:2230   */\n  dup2\n    /* \"#utility.yul\":2221:2238   */\n  mstore\n    /* \"#utility.yul\":2277:2281   */\n  0x20\n    /* \"#utility.yul\":2273:2275   */\n  dup2\n    /* \"#utility.yul\":2263:2282   */\n  keccak256\n    /* \"#utility.yul\":2347:2349   */\n  0x1f\n    /* \"#utility.yul\":2335:2345   */\n  dup6\n    /* \"#utility.yul\":2331:2350   */\n  add\n    /* \"#utility.yul\":2328:2329   */\n  0x05\n    /* \"#utility.yul\":2324:2351   */\n  shr\n    /* \"#utility.yul\":2318:2322   */\n  dup2\n    /* \"#utility.yul\":2314:2352   */\n  add\n    /* \"#utility.yul\":2383:2387   */\n  0x20\n    /* \"#utility.yul\":2371:2381   */\n  dup7\n    /* \"#utility.yul\":2368:2388   */\n  lt\n    /* \"#utility.yul\":2365:2412   */\n  iszero\n  tag_40\n  jumpi\n  pop\n    /* \"#utility.yul\":2406:2410   */\n  dup1\n    /* \"#utility.yul\":2365:2412   */\ntag_40:\n    /* \"#utility.yul\":2461:2463   */\n  0x1f\n    /* \"#utility.yul\":2456:2459   */\n  dup6\n    /* \"#utility.yul\":2452:2464   */\n  add\n    /* \"#utility.yul\":2449:2450   */\n  0x05\n    /* \"#utility.yul\":2445:2465   */\n  shr\n    /* \"#utility.yul\":2439:2443   */\n  dup3\n    /* \"#utility.yul\":2435:2466   */\n  add\n    /* \"#utility.yul\":2425:2466   */\n  swap2\n  pop\n    /* \"#utility.yul\":2516:2598   */\ntag_41:\n    /* \"#utility.yul\":2534:2536   */\n  dup2\n    /* \"#utility.yul\":2527:2532   */\n  dup2\n    /* \"#utility.yul\":2524:2537   */\n  lt\n    /* \"#utility.yul\":2516:2598   */\n  iszero\n  tag_43\n  jumpi\n    /* \"#utility.yul\":2579:2596   */\n  dup3\n  dup2\n  sstore\n    /* \"#utility.yul\":2560:2561   */\n  0x01\n    /* \"#utility.yul\":2549:2562   */\n  add\n    /* \"#utility.yul\":2516:2598   */\n  jump(tag_41)\ntag_43:\n    /* \"#utility.yul\":2520:2523   */\n  pop\n  pop\n  pop\n    /* \"#utility.yul\":2160:2608   */\ntag_39:\n    /* \"#utility.yul\":2069:2614   */\n  pop\n  pop\n  pop\n  jump\t// out\n    /* \"#utility.yul\":2790:4142   */\ntag_7:\n    /* \"#utility.yul\":2910:2920   */\n  dup2\n  mload\n  sub(shl(0x40, 0x01), 0x01)\n    /* \"#utility.yul\":2932:2962   */\n  dup2\n  gt\n    /* \"#utility.yul\":2929:2985   */\n  iszero\n  tag_47\n  jumpi\n    /* \"#utility.yul\":2965:2983   */\n  tag_47\n  tag_10\n  jump\t// in\ntag_47:\n    /* \"#utility.yul\":2994:3091   */\n  tag_48\n    /* \"#utility.yul\":3084:3090   */\n  dup2\n    /* \"#utility.yul\":3044:3082   */\n  tag_49\n    /* \"#utility.yul\":3076:3080   */\n  dup5\n    /* \"#utility.yul\":3070:3081   */\n  sload\n    /* \"#utility.yul\":3044:3082   */\n  tag_12\n  jump\t// in\ntag_49:\n    /* \"#utility.yul\":3038:3042   */\n  dup5\n    /* \"#utility.yul\":2994:3091   */\n  tag_14\n  jump\t// in\ntag_48:\n    /* \"#utility.yul\":3146:3150   */\n  0x20\n  dup1\n    /* \"#utility.yul\":3210:3212   */\n  0x1f\n    /* \"#utility.yul\":3199:3213   */\n  dup4\n  gt\n    /* \"#utility.yul\":3227:3228   */\n  0x01\n    /* \"#utility.yul\":3222:3885   */\n  dup2\n  eq\n  tag_51\n  jumpi\n    /* \"#utility.yul\":3929:3930   */\n  0x00\n    /* \"#utility.yul\":3946:3952   */\n  dup5\n    /* \"#utility.yul\":3943:4032   */\n  iszero\n  tag_52\n  jumpi\n  pop\n    /* \"#utility.yul\":3998:4017   */\n  dup6\n  dup4\n  add\n    /* \"#utility.yul\":3992:4018   */\n  mload\n    /* \"#utility.yul\":3943:4032   */\ntag_52:\n  not(0x00)\n    /* \"#utility.yul\":2747:2748   */\n  0x03\n    /* \"#utility.yul\":2743:2754   */\n  dup7\n  swap1\n  shl\n    /* \"#utility.yul\":2739:2763   */\n  shr\n    /* \"#utility.yul\":2735:2764   */\n  not\n    /* \"#utility.yul\":2725:2765   */\n  and\n    /* \"#utility.yul\":2771:2772   */\n  0x01\n    /* \"#utility.yul\":2767:2778   */\n  dup6\n  swap1\n  shl\n    /* \"#utility.yul\":2722:2779   */\n  or\n    /* \"#utility.yul\":4045:4126   */\n  dup6\n  sstore\n    /* \"#utility.yul\":3192:4136   */\n  jump(tag_43)\n    /* \"#utility.yul\":3222:3885   */\ntag_51:\n    /* \"#utility.yul\":2016:2017   */\n  0x00\n    /* \"#utility.yul\":2009:2023   */\n  dup6\n  dup2\n  mstore\n    /* \"#utility.yul\":2053:2057   */\n  0x20\n    /* \"#utility.yul\":2040:2058   */\n  dup2\n  keccak256\n  not(0x1f)\n    /* \"#utility.yul\":3258:3278   */\n  dup7\n  and\n  swap2\n    /* \"#utility.yul\":3376:3612   */\ntag_55:\n    /* \"#utility.yul\":3390:3397   */\n  dup3\n    /* \"#utility.yul\":3387:3388   */\n  dup2\n    /* \"#utility.yul\":3384:3398   */\n  lt\n    /* \"#utility.yul\":3376:3612   */\n  iszero\n  tag_57\n  jumpi\n    /* \"#utility.yul\":3479:3498   */\n  dup9\n  dup7\n  add\n    /* \"#utility.yul\":3473:3499   */\n  mload\n    /* \"#utility.yul\":3458:3500   */\n  dup3\n  sstore\n    /* \"#utility.yul\":3571:3598   */\n  swap5\n  dup5\n  add\n  swap5\n    /* \"#utility.yul\":3539:3540   */\n  0x01\n    /* \"#utility.yul\":3527:3541   */\n  swap1\n  swap2\n  add\n  swap1\n    /* \"#utility.yul\":3406:3425   */\n  dup5\n  add\n    /* \"#utility.yul\":3376:3612   */\n  jump(tag_55)\ntag_57:\n    /* \"#utility.yul\":3380:3383   */\n  pop\n    /* \"#utility.yul\":3640:3646   */\n  dup6\n    /* \"#utility.yul\":3631:3638   */\n  dup3\n    /* \"#utility.yul\":3628:3647   */\n  lt\n    /* \"#utility.yul\":3625:3826   */\n  iszero\n  tag_58\n  jumpi\n    /* \"#utility.yul\":3701:3720   */\n  dup8\n  dup6\n  add\n    /* \"#utility.yul\":3695:3721   */\n  mload\n  not(0x00)\n    /* \"#utility.yul\":3784:3785   */\n  0x03\n    /* \"#utility.yul\":3780:3794   */\n  dup9\n  swap1\n  shl\n    /* \"#utility.yul\":3796:3799   */\n  0xf8\n    /* \"#utility.yul\":3776:3800   */\n  and\n    /* \"#utility.yul\":3772:3809   */\n  shr\n    /* \"#utility.yul\":3768:3810   */\n  not\n    /* \"#utility.yul\":3753:3811   */\n  and\n    /* \"#utility.yul\":3738:3812   */\n  dup2\n  sstore\n    /* \"#utility.yul\":3625:3826   */\ntag_58:\n  pop\n  pop\n  pop\n  pop\n  pop\n    /* \"#utility.yul\":3872:3873   */\n  0x01\n    /* \"#utility.yul\":3856:3870   */\n  swap1\n  dup2\n  shl\n    /* \"#utility.yul\":3852:3874   */\n  add\n    /* \"#utility.yul\":3839:3875   */\n  swap1\n  sstore\n  pop\n    /* \"#utility.yul\":2790:4142   */\n  jump\t// out\ntag_16:\n    /* \"contracts/ERC20.sol\":247:4839  contract ERC20 is IERC20, IERC20Metadata, Context {... */\n  dataSize(sub_0)\n  dup1\n  dataOffset(sub_0)\n  0x00\n  codecopy\n  0x00\n  return\nstop\n\nsub_0: assembly {\n        /* \"contracts/ERC20.sol\":247:4839  contract ERC20 is IERC20, IERC20Metadata, Context {... */\n      mstore(0x40, 0x80)\n      callvalue\n      dup1\n      iszero\n      tag_1\n      jumpi\n      0x00\n      dup1\n      revert\n    tag_1:\n      pop\n      jumpi(tag_2, lt(calldatasize, 0x04))\n      shr(0xe0, calldataload(0x00))\n      dup1\n      0x70a08231\n      gt\n      tag_14\n      jumpi\n      dup1\n      0x70a08231\n      eq\n      tag_8\n      jumpi\n      dup1\n      0x95d89b41\n      eq\n      tag_9\n      jumpi\n      dup1\n      0xa457c2d7\n      eq\n      tag_10\n      jumpi\n      dup1\n      0xa9059cbb\n      eq\n      tag_11\n      jumpi\n      dup1\n      0xdd62ed3e\n      eq\n      tag_12\n      jumpi\n      dup1\n      0xff61011a\n      eq\n      tag_13\n      jumpi\n      0x00\n      dup1\n      revert\n    tag_14:\n      dup1\n      0x06fdde03\n      eq\n      tag_3\n      jumpi\n      dup1\n      0x095ea7b3\n      eq\n      tag_4\n      jumpi\n      dup1\n      0x18160ddd\n      eq\n      tag_5\n      jumpi\n      dup1\n      0x23b872dd\n      eq\n      tag_6\n      jumpi\n      dup1\n      0x313ce567\n      eq\n      tag_7\n      jumpi\n    tag_2:\n      0x00\n      dup1\n      revert\n        /* \"contracts/ERC20.sol\":636:734  function name() public view virtual override returns(string memory){... */\n    tag_3:\n      tag_15\n      tag_16\n      jump\t// in\n    tag_15:\n      mload(0x40)\n      tag_17\n      swap2\n      swap1\n      tag_18\n      jump\t// in\n    tag_17:\n      mload(0x40)\n      dup1\n      swap2\n      sub\n      swap1\n      return\n        /* \"contracts/ERC20.sol\":1341:1540  function approve(address spender, uint256 amount)public virtual override returns(bool) {... */\n    tag_4:\n      tag_19\n      tag_20\n      calldatasize\n      0x04\n      tag_21\n      jump\t// in\n    tag_20:\n      tag_22\n      jump\t// in\n    tag_19:\n      mload(0x40)\n        /* \"#utility.yul\":1169:1183   */\n      swap1\n      iszero\n        /* \"#utility.yul\":1162:1184   */\n      iszero\n        /* \"#utility.yul\":1144:1185   */\n      dup2\n      mstore\n        /* \"#utility.yul\":1132:1134   */\n      0x20\n        /* \"#utility.yul\":1117:1135   */\n      add\n        /* \"contracts/ERC20.sol\":1341:1540  function approve(address spender, uint256 amount)public virtual override returns(bool) {... */\n      tag_17\n        /* \"#utility.yul\":1004:1191   */\n      jump\n        /* \"contracts/ERC20.sol\":1080:1177  function totalSupply() public view virtual returns(uint256){... */\n    tag_5:\n        /* \"contracts/ERC20.sol\":1157:1169  _totalSupply */\n      sload(0x04)\n        /* \"contracts/ERC20.sol\":1080:1177  function totalSupply() public view virtual returns(uint256){... */\n    tag_25:\n      mload(0x40)\n        /* \"#utility.yul\":1342:1367   */\n      swap1\n      dup2\n      mstore\n        /* \"#utility.yul\":1330:1332   */\n      0x20\n        /* \"#utility.yul\":1315:1333   */\n      add\n        /* \"contracts/ERC20.sol\":1080:1177  function totalSupply() public view virtual returns(uint256){... */\n      tag_17\n        /* \"#utility.yul\":1196:1373   */\n      jump\n        /* \"contracts/ERC20.sol\":3232:3490  function transferFrom(address from, address to, uint256 amount)public virtual override returns(bool){... */\n    tag_6:\n      tag_19\n      tag_30\n      calldatasize\n      0x04\n      tag_31\n      jump\t// in\n    tag_30:\n      tag_32\n      jump\t// in\n        /* \"contracts/ERC20.sol\":848:939  function decimals() public view virtual override returns(uint8){... */\n    tag_7:\n      mload(0x40)\n        /* \"contracts/ERC20.sol\":929:931  18 */\n      0x12\n        /* \"#utility.yul\":1853:1889   */\n      dup2\n      mstore\n        /* \"#utility.yul\":1841:1843   */\n      0x20\n        /* \"#utility.yul\":1826:1844   */\n      add\n        /* \"contracts/ERC20.sol\":848:939  function decimals() public view virtual override returns(uint8){... */\n      tag_17\n        /* \"#utility.yul\":1711:1895   */\n      jump\n        /* \"contracts/ERC20.sol\":949:1074  function balanceOf(address account) public view virtual override returns(uint256){... */\n    tag_8:\n      tag_25\n      tag_39\n      calldatasize\n      0x04\n      tag_40\n      jump\t// in\n    tag_39:\n      sub(shl(0xa0, 0x01), 0x01)\n        /* \"contracts/ERC20.sol\":1048:1066  _balances[account] */\n      and\n        /* \"contracts/ERC20.sol\":1022:1029  uint256 */\n      0x00\n        /* \"contracts/ERC20.sol\":1048:1066  _balances[account] */\n      swap1\n      dup2\n      mstore\n      0x20\n      dup2\n      swap1\n      mstore\n      0x40\n      swap1\n      keccak256\n      sload\n      swap1\n        /* \"contracts/ERC20.sol\":949:1074  function balanceOf(address account) public view virtual override returns(uint256){... */\n      jump\n        /* \"contracts/ERC20.sol\":740:842  function symbol() public view virtual override returns(string memory){... */\n    tag_9:\n      tag_15\n      tag_44\n      jump\t// in\n        /* \"contracts/ERC20.sol\":2616:3024  function decreaseAllowance(address spender, uint256 amount)public virtual returns(bool){... */\n    tag_10:\n      tag_19\n      tag_47\n      calldatasize\n      0x04\n      tag_21\n      jump\t// in\n    tag_47:\n      tag_48\n      jump\t// in\n        /* \"contracts/ERC20.sol\":3032:3224  function transfer(address to, uint256 amount)public virtual override returns(bool){... */\n    tag_11:\n      tag_19\n      tag_51\n      calldatasize\n      0x04\n      tag_21\n      jump\t// in\n    tag_51:\n      tag_52\n      jump\t// in\n        /* \"contracts/ERC20.sol\":1187:1335  function allowance(address owner, address spender)public view virtual override returns(uint256){... */\n    tag_12:\n      tag_25\n      tag_55\n      calldatasize\n      0x04\n      tag_56\n      jump\t// in\n    tag_55:\n      sub(shl(0xa0, 0x01), 0x01)\n        /* \"contracts/ERC20.sol\":1300:1318  _allowances[owner] */\n      swap2\n      dup3\n      and\n        /* \"contracts/ERC20.sol\":1274:1281  uint256 */\n      0x00\n        /* \"contracts/ERC20.sol\":1300:1318  _allowances[owner] */\n      swap1\n      dup2\n      mstore\n        /* \"contracts/ERC20.sol\":1300:1311  _allowances */\n      0x01\n        /* \"contracts/ERC20.sol\":1300:1318  _allowances[owner] */\n      0x20\n      swap1\n      dup2\n      mstore\n      0x40\n      dup1\n      dup4\n      keccak256\n        /* \"contracts/ERC20.sol\":1300:1327  _allowances[owner][spender] */\n      swap4\n      swap1\n      swap5\n      and\n      dup3\n      mstore\n      swap2\n      swap1\n      swap2\n      mstore\n      keccak256\n      sload\n      swap1\n        /* \"contracts/ERC20.sol\":1187:1335  function allowance(address owner, address spender)public view virtual override returns(uint256){... */\n      jump\n        /* \"contracts/ERC20.sol\":2319:2610  function increaseAllowance(address spender, uint256,uint256 amount)public virtual returns(bool){... */\n    tag_13:\n      tag_19\n      tag_60\n      calldatasize\n      0x04\n      tag_61\n      jump\t// in\n    tag_60:\n      tag_62\n      jump\t// in\n        /* \"contracts/ERC20.sol\":636:734  function name() public view virtual override returns(string memory){... */\n    tag_16:\n        /* \"contracts/ERC20.sol\":689:702  string memory */\n      0x60\n        /* \"contracts/ERC20.sol\":721:726  _name */\n      0x02\n        /* \"contracts/ERC20.sol\":714:726  return _name */\n      dup1\n      sload\n      tag_65\n      swap1\n      tag_66\n      jump\t// in\n    tag_65:\n      dup1\n      0x1f\n      add\n      0x20\n      dup1\n      swap2\n      div\n      mul\n      0x20\n      add\n      mload(0x40)\n      swap1\n      dup2\n      add\n      0x40\n      mstore\n      dup1\n      swap3\n      swap2\n      swap1\n      dup2\n      dup2\n      mstore\n      0x20\n      add\n      dup3\n      dup1\n      sload\n      tag_67\n      swap1\n      tag_66\n      jump\t// in\n    tag_67:\n      dup1\n      iszero\n      tag_68\n      jumpi\n      dup1\n      0x1f\n      lt\n      tag_69\n      jumpi\n      0x0100\n      dup1\n      dup4\n      sload\n      div\n      mul\n      dup4\n      mstore\n      swap2\n      0x20\n      add\n      swap2\n      jump(tag_68)\n    tag_69:\n      dup3\n      add\n      swap2\n      swap1\n      0x00\n      mstore\n      keccak256(0x00, 0x20)\n      swap1\n    tag_70:\n      dup2\n      sload\n      dup2\n      mstore\n      swap1\n      0x01\n      add\n      swap1\n      0x20\n      add\n      dup1\n      dup4\n      gt\n      tag_70\n      jumpi\n      dup3\n      swap1\n      sub\n      0x1f\n      and\n      dup3\n      add\n      swap2\n    tag_68:\n      pop\n      pop\n      pop\n      pop\n      pop\n      swap1\n      pop\n        /* \"contracts/ERC20.sol\":636:734  function name() public view virtual override returns(string memory){... */\n      swap1\n      jump\t// out\n        /* \"contracts/ERC20.sol\":1341:1540  function approve(address spender, uint256 amount)public virtual override returns(bool) {... */\n    tag_22:\n        /* \"contracts/ERC20.sol\":1422:1426  bool */\n      0x00\n        /* \"@openzeppelin/contracts/utils/Context.sol\":666:676  msg.sender */\n      caller\n        /* \"contracts/ERC20.sol\":1478:1510  _approve(owner, spender, amount) */\n      tag_74\n        /* \"@openzeppelin/contracts/utils/Context.sol\":666:676  msg.sender */\n      dup2\n        /* \"contracts/ERC20.sol\":1494:1501  spender */\n      dup6\n        /* \"contracts/ERC20.sol\":1503:1509  amount */\n      dup6\n        /* \"contracts/ERC20.sol\":1478:1486  _approve */\n      tag_75\n        /* \"contracts/ERC20.sol\":1478:1510  _approve(owner, spender, amount) */\n      jump\t// in\n    tag_74:\n        /* \"contracts/ERC20.sol\":1528:1532  true */\n      0x01\n        /* \"contracts/ERC20.sol\":1521:1532  return true */\n      swap2\n      pop\n      pop\n        /* \"contracts/ERC20.sol\":1341:1540  function approve(address spender, uint256 amount)public virtual override returns(bool) {... */\n    tag_71:\n      swap3\n      swap2\n      pop\n      pop\n      jump\t// out\n        /* \"contracts/ERC20.sol\":3232:3490  function transferFrom(address from, address to, uint256 amount)public virtual override returns(bool){... */\n    tag_32:\n        /* \"contracts/ERC20.sol\":3327:3331  bool */\n      0x00\n        /* \"@openzeppelin/contracts/utils/Context.sol\":666:676  msg.sender */\n      caller\n        /* \"contracts/ERC20.sol\":3384:3422  _spendAllowance(from, spender, amount) */\n      tag_79\n        /* \"contracts/ERC20.sol\":3400:3404  from */\n      dup6\n        /* \"@openzeppelin/contracts/utils/Context.sol\":666:676  msg.sender */\n      dup3\n        /* \"contracts/ERC20.sol\":3415:3421  amount */\n      dup6\n        /* \"contracts/ERC20.sol\":3384:3399  _spendAllowance */\n      tag_80\n        /* \"contracts/ERC20.sol\":3384:3422  _spendAllowance(from, spender, amount) */\n      jump\t// in\n    tag_79:\n        /* \"contracts/ERC20.sol\":3433:3460  _transfer(from, to, amount) */\n      tag_81\n        /* \"contracts/ERC20.sol\":3443:3447  from */\n      dup6\n        /* \"contracts/ERC20.sol\":3449:3451  to */\n      dup6\n        /* \"contracts/ERC20.sol\":3453:3459  amount */\n      dup6\n        /* \"contracts/ERC20.sol\":3433:3442  _transfer */\n      tag_82\n        /* \"contracts/ERC20.sol\":3433:3460  _transfer(from, to, amount) */\n      jump\t// in\n    tag_81:\n      pop\n        /* \"contracts/ERC20.sol\":3478:3482  true */\n      0x01\n      swap5\n        /* \"contracts/ERC20.sol\":3232:3490  function transferFrom(address from, address to, uint256 amount)public virtual override returns(bool){... */\n      swap4\n      pop\n      pop\n      pop\n      pop\n      jump\t// out\n        /* \"contracts/ERC20.sol\":740:842  function symbol() public view virtual override returns(string memory){... */\n    tag_44:\n        /* \"contracts/ERC20.sol\":795:808  string memory */\n      0x60\n        /* \"contracts/ERC20.sol\":827:834  _symbol */\n      0x03\n        /* \"contracts/ERC20.sol\":820:834  return _symbol */\n      dup1\n      sload\n      tag_65\n      swap1\n      tag_66\n      jump\t// in\n        /* \"contracts/ERC20.sol\":2616:3024  function decreaseAllowance(address spender, uint256 amount)public virtual returns(bool){... */\n    tag_48:\n        /* \"@openzeppelin/contracts/utils/Context.sol\":666:676  msg.sender */\n      caller\n        /* \"contracts/ERC20.sol\":2698:2702  bool */\n      0x00\n        /* \"contracts/ERC20.sol\":2780:2798  _allowances[owner] */\n      dup2\n      dup2\n      mstore\n        /* \"contracts/ERC20.sol\":2780:2791  _allowances */\n      0x01\n        /* \"contracts/ERC20.sol\":2780:2798  _allowances[owner] */\n      0x20\n      swap1\n      dup2\n      mstore\n      0x40\n      dup1\n      dup4\n      keccak256\n      sub(shl(0xa0, 0x01), 0x01)\n        /* \"contracts/ERC20.sol\":2780:2807  _allowances[owner][spender] */\n      dup8\n      and\n      dup5\n      mstore\n      swap1\n      swap2\n      mstore\n      dup2\n      keccak256\n      sload\n        /* \"contracts/ERC20.sol\":2698:2702  bool */\n      swap1\n      swap2\n        /* \"@openzeppelin/contracts/utils/Context.sol\":666:676  msg.sender */\n      swap1\n        /* \"contracts/ERC20.sol\":2827:2853  currentAllowance >= amount */\n      dup4\n      dup2\n      lt\n      iszero\n        /* \"contracts/ERC20.sol\":2818:2896  require (currentAllowance >= amount, \"Erc20: decreased allowance bellow zero\") */\n      tag_93\n      jumpi\n      mload(0x40)\n      shl(0xe5, 0x461bcd)\n      dup2\n      mstore\n        /* \"#utility.yul\":3270:3272   */\n      0x20\n        /* \"contracts/ERC20.sol\":2818:2896  require (currentAllowance >= amount, \"Erc20: decreased allowance bellow zero\") */\n      0x04\n      dup3\n      add\n        /* \"#utility.yul\":3252:3273   */\n      mstore\n        /* \"#utility.yul\":3309:3311   */\n      0x26\n        /* \"#utility.yul\":3289:3307   */\n      0x24\n      dup3\n      add\n        /* \"#utility.yul\":3282:3312   */\n      mstore\n        /* \"#utility.yul\":3348:3382   */\n      0x45726332303a2064656372656173656420616c6c6f77616e63652062656c6c6f\n        /* \"#utility.yul\":3328:3346   */\n      0x44\n      dup3\n      add\n        /* \"#utility.yul\":3321:3383   */\n      mstore\n      shl(0xd0, 0x77207a65726f)\n        /* \"#utility.yul\":3399:3417   */\n      0x64\n      dup3\n      add\n        /* \"#utility.yul\":3392:3428   */\n      mstore\n        /* \"#utility.yul\":3445:3464   */\n      0x84\n      add\n        /* \"contracts/ERC20.sol\":2818:2896  require (currentAllowance >= amount, \"Erc20: decreased allowance bellow zero\") */\n    tag_94:\n      mload(0x40)\n      dup1\n      swap2\n      sub\n      swap1\n      revert\n    tag_93:\n        /* \"contracts/ERC20.sol\":2931:2983  _approve(owner ,spender, currentAllowance  - amount) */\n      tag_81\n        /* \"contracts/ERC20.sol\":2940:2945  owner */\n      dup3\n        /* \"contracts/ERC20.sol\":2947:2954  spender */\n      dup7\n        /* \"contracts/ERC20.sol\":2976:2982  amount */\n      dup7\n        /* \"contracts/ERC20.sol\":2956:2972  currentAllowance */\n      dup5\n        /* \"contracts/ERC20.sol\":2956:2982  currentAllowance  - amount */\n      sub\n        /* \"contracts/ERC20.sol\":2931:2939  _approve */\n      tag_75\n        /* \"contracts/ERC20.sol\":2931:2983  _approve(owner ,spender, currentAllowance  - amount) */\n      jump\t// in\n        /* \"contracts/ERC20.sol\":3032:3224  function transfer(address to, uint256 amount)public virtual override returns(bool){... */\n    tag_52:\n        /* \"contracts/ERC20.sol\":3109:3113  bool */\n      0x00\n        /* \"@openzeppelin/contracts/utils/Context.sol\":666:676  msg.sender */\n      caller\n        /* \"contracts/ERC20.sol\":3164:3192  _transfer(owner, to, amount) */\n      tag_74\n        /* \"@openzeppelin/contracts/utils/Context.sol\":666:676  msg.sender */\n      dup2\n        /* \"contracts/ERC20.sol\":3181:3183  to */\n      dup6\n        /* \"contracts/ERC20.sol\":3185:3191  amount */\n      dup6\n        /* \"contracts/ERC20.sol\":3164:3173  _transfer */\n      tag_82\n        /* \"contracts/ERC20.sol\":3164:3192  _transfer(owner, to, amount) */\n      jump\t// in\n        /* \"contracts/ERC20.sol\":2319:2610  function increaseAllowance(address spender, uint256,uint256 amount)public virtual returns(bool){... */\n    tag_62:\n        /* \"@openzeppelin/contracts/utils/Context.sol\":666:676  msg.sender */\n      caller\n        /* \"contracts/ERC20.sol\":2409:2413  bool */\n      0x00\n        /* \"contracts/ERC20.sol\":2491:2509  _allowances[owner] */\n      dup2\n      dup2\n      mstore\n        /* \"contracts/ERC20.sol\":2491:2502  _allowances */\n      0x01\n        /* \"contracts/ERC20.sol\":2491:2509  _allowances[owner] */\n      0x20\n      swap1\n      dup2\n      mstore\n      0x40\n      dup1\n      dup4\n      keccak256\n      sub(shl(0xa0, 0x01), 0x01)\n        /* \"contracts/ERC20.sol\":2491:2518  _allowances[owner][spender] */\n      dup9\n      and\n      dup5\n      mstore\n      swap1\n      swap2\n      mstore\n      dup2\n      keccak256\n      sload\n        /* \"contracts/ERC20.sol\":2409:2413  bool */\n      swap1\n      swap2\n        /* \"@openzeppelin/contracts/utils/Context.sol\":666:676  msg.sender */\n      swap1\n        /* \"contracts/ERC20.sol\":2529:2580  _approve(owner, spender, currentAllowance + amount) */\n      tag_103\n        /* \"@openzeppelin/contracts/utils/Context.sol\":666:676  msg.sender */\n      dup3\n        /* \"contracts/ERC20.sol\":2491:2518  _allowances[owner][spender] */\n      dup8\n        /* \"contracts/ERC20.sol\":2554:2579  currentAllowance + amount */\n      tag_104\n        /* \"contracts/ERC20.sol\":2573:2579  amount */\n      dup8\n        /* \"contracts/ERC20.sol\":2491:2518  _allowances[owner][spender] */\n      dup6\n        /* \"contracts/ERC20.sol\":2554:2579  currentAllowance + amount */\n      tag_105\n      jump\t// in\n    tag_104:\n        /* \"contracts/ERC20.sol\":2529:2537  _approve */\n      tag_75\n        /* \"contracts/ERC20.sol\":2529:2580  _approve(owner, spender, currentAllowance + amount) */\n      jump\t// in\n    tag_103:\n      pop\n        /* \"contracts/ERC20.sol\":2598:2602  true */\n      0x01\n      swap6\n        /* \"contracts/ERC20.sol\":2319:2610  function increaseAllowance(address spender, uint256,uint256 amount)public virtual returns(bool){... */\n      swap5\n      pop\n      pop\n      pop\n      pop\n      pop\n      jump\t// out\n        /* \"contracts/ERC20.sol\":1546:1892  function _approve(address owner, address spender, uint256 amount)internal virtual{... */\n    tag_75:\n      sub(shl(0xa0, 0x01), 0x01)\n        /* \"contracts/ERC20.sol\":1646:1665  owner != address(0) */\n      dup4\n      and\n        /* \"contracts/ERC20.sol\":1638:1707  require(owner != address(0), \"ERC20: approve owner the zero address\") */\n      tag_108\n      jumpi\n      mload(0x40)\n      shl(0xe5, 0x461bcd)\n      dup2\n      mstore\n        /* \"#utility.yul\":3904:3906   */\n      0x20\n        /* \"contracts/ERC20.sol\":1638:1707  require(owner != address(0), \"ERC20: approve owner the zero address\") */\n      0x04\n      dup3\n      add\n        /* \"#utility.yul\":3886:3907   */\n      mstore\n        /* \"#utility.yul\":3943:3945   */\n      0x25\n        /* \"#utility.yul\":3923:3941   */\n      0x24\n      dup3\n      add\n        /* \"#utility.yul\":3916:3946   */\n      mstore\n        /* \"#utility.yul\":3982:4016   */\n      0x45524332303a20617070726f7665206f776e657220746865207a65726f206164\n        /* \"#utility.yul\":3962:3980   */\n      0x44\n      dup3\n      add\n        /* \"#utility.yul\":3955:4017   */\n      mstore\n      shl(0xd8, 0x6472657373)\n        /* \"#utility.yul\":4033:4051   */\n      0x64\n      dup3\n      add\n        /* \"#utility.yul\":4026:4061   */\n      mstore\n        /* \"#utility.yul\":4078:4097   */\n      0x84\n      add\n        /* \"contracts/ERC20.sol\":1638:1707  require(owner != address(0), \"ERC20: approve owner the zero address\") */\n      tag_94\n        /* \"#utility.yul\":3702:4103   */\n      jump\n        /* \"contracts/ERC20.sol\":1638:1707  require(owner != address(0), \"ERC20: approve owner the zero address\") */\n    tag_108:\n      sub(shl(0xa0, 0x01), 0x01)\n        /* \"contracts/ERC20.sol\":1726:1747  spender != address(0) */\n      dup3\n      and\n        /* \"contracts/ERC20.sol\":1718:1791  require(spender != address(0), \"ERC20: approve spender the zero address\") */\n      tag_111\n      jumpi\n      mload(0x40)\n      shl(0xe5, 0x461bcd)\n      dup2\n      mstore\n        /* \"#utility.yul\":4310:4312   */\n      0x20\n        /* \"contracts/ERC20.sol\":1718:1791  require(spender != address(0), \"ERC20: approve spender the zero address\") */\n      0x04\n      dup3\n      add\n        /* \"#utility.yul\":4292:4313   */\n      mstore\n        /* \"#utility.yul\":4349:4351   */\n      0x27\n        /* \"#utility.yul\":4329:4347   */\n      0x24\n      dup3\n      add\n        /* \"#utility.yul\":4322:4352   */\n      mstore\n        /* \"#utility.yul\":4388:4422   */\n      0x45524332303a20617070726f7665207370656e64657220746865207a65726f20\n        /* \"#utility.yul\":4368:4386   */\n      0x44\n      dup3\n      add\n        /* \"#utility.yul\":4361:4423   */\n      mstore\n      shl(0xc8, 0x61646472657373)\n        /* \"#utility.yul\":4439:4457   */\n      0x64\n      dup3\n      add\n        /* \"#utility.yul\":4432:4469   */\n      mstore\n        /* \"#utility.yul\":4486:4505   */\n      0x84\n      add\n        /* \"contracts/ERC20.sol\":1718:1791  require(spender != address(0), \"ERC20: approve spender the zero address\") */\n      tag_94\n        /* \"#utility.yul\":4108:4511   */\n      jump\n        /* \"contracts/ERC20.sol\":1718:1791  require(spender != address(0), \"ERC20: approve spender the zero address\") */\n    tag_111:\n      sub(shl(0xa0, 0x01), 0x01)\n        /* \"contracts/ERC20.sol\":1804:1822  _allowances[owner] */\n      dup4\n      dup2\n      and\n      0x00\n      dup2\n      dup2\n      mstore\n        /* \"contracts/ERC20.sol\":1804:1815  _allowances */\n      0x01\n        /* \"contracts/ERC20.sol\":1804:1822  _allowances[owner] */\n      0x20\n      swap1\n      dup2\n      mstore\n      0x40\n      dup1\n      dup4\n      keccak256\n        /* \"contracts/ERC20.sol\":1804:1831  _allowances[owner][spender] */\n      swap5\n      dup8\n      and\n      dup1\n      dup5\n      mstore\n      swap5\n      dup3\n      mstore\n      swap2\n      dup3\n      swap1\n      keccak256\n        /* \"contracts/ERC20.sol\":1804:1838  _allowances[owner][spender]=amount */\n      dup6\n      swap1\n      sstore\n        /* \"contracts/ERC20.sol\":1854:1884  Approval(owner,spender,amount) */\n      swap1\n      mload\n        /* \"#utility.yul\":1342:1367   */\n      dup5\n      dup2\n      mstore\n        /* \"contracts/ERC20.sol\":1854:1884  Approval(owner,spender,amount) */\n      0x8c5be1e5ebec7d5bd14f71427d1e84f3dd0314c0f7b2291e5b200ac8c7c3b925\n      swap2\n        /* \"#utility.yul\":1315:1333   */\n      add\n        /* \"contracts/ERC20.sol\":1854:1884  Approval(owner,spender,amount) */\n      mload(0x40)\n      dup1\n      swap2\n      sub\n      swap1\n      log3\n        /* \"contracts/ERC20.sol\":1546:1892  function _approve(address owner, address spender, uint256 amount)internal virtual{... */\n      pop\n      pop\n      pop\n      jump\t// out\n        /* \"contracts/ERC20.sol\":1898:2313  function _spendAllowance(address owner, address spender, uint256 amount)internal virtual{... */\n    tag_80:\n      sub(shl(0xa0, 0x01), 0x01)\n        /* \"contracts/ERC20.sol\":1300:1318  _allowances[owner] */\n      dup4\n      dup2\n      and\n        /* \"contracts/ERC20.sol\":1997:2021  uint256 currentAllowance */\n      0x00\n        /* \"contracts/ERC20.sol\":1300:1318  _allowances[owner] */\n      swap1\n      dup2\n      mstore\n        /* \"contracts/ERC20.sol\":1300:1311  _allowances */\n      0x01\n        /* \"contracts/ERC20.sol\":1300:1318  _allowances[owner] */\n      0x20\n      swap1\n      dup2\n      mstore\n      0x40\n      dup1\n      dup4\n      keccak256\n        /* \"contracts/ERC20.sol\":1300:1327  _allowances[owner][spender] */\n      swap4\n      dup7\n      and\n      dup4\n      mstore\n      swap3\n      swap1\n      mstore\n      keccak256\n      sload\n      not(0x00)\n        /* \"contracts/ERC20.sol\":2063:2100  currentAllowance != type(uint256).max */\n      dup2\n      eq\n        /* \"contracts/ERC20.sol\":2060:2306  if(currentAllowance != type(uint256).max){... */\n      tag_121\n      jumpi\n        /* \"contracts/ERC20.sol\":2144:2150  amount */\n      dup2\n        /* \"contracts/ERC20.sol\":2124:2140  currentAllowance */\n      dup2\n        /* \"contracts/ERC20.sol\":2124:2150  currentAllowance >= amount */\n      lt\n      iszero\n        /* \"contracts/ERC20.sol\":2116:2185  require(currentAllowance >= amount, \"ERC20: incufficient allowance \") */\n      tag_118\n      jumpi\n      mload(0x40)\n      shl(0xe5, 0x461bcd)\n      dup2\n      mstore\n        /* \"#utility.yul\":4718:4720   */\n      0x20\n        /* \"contracts/ERC20.sol\":2116:2185  require(currentAllowance >= amount, \"ERC20: incufficient allowance \") */\n      0x04\n      dup3\n      add\n        /* \"#utility.yul\":4700:4721   */\n      mstore\n        /* \"#utility.yul\":4757:4759   */\n      0x1e\n        /* \"#utility.yul\":4737:4755   */\n      0x24\n      dup3\n      add\n        /* \"#utility.yul\":4730:4760   */\n      mstore\n        /* \"#utility.yul\":4796:4828   */\n      0x45524332303a20696e63756666696369656e7420616c6c6f77616e6365200000\n        /* \"#utility.yul\":4776:4794   */\n      0x44\n      dup3\n      add\n        /* \"#utility.yul\":4769:4829   */\n      mstore\n        /* \"#utility.yul\":4846:4864   */\n      0x64\n      add\n        /* \"contracts/ERC20.sol\":2116:2185  require(currentAllowance >= amount, \"ERC20: incufficient allowance \") */\n      tag_94\n        /* \"#utility.yul\":4516:4870   */\n      jump\n        /* \"contracts/ERC20.sol\":2116:2185  require(currentAllowance >= amount, \"ERC20: incufficient allowance \") */\n    tag_118:\n        /* \"contracts/ERC20.sol\":2228:2279  _approve(owner, spender, currentAllowance - amount) */\n      tag_121\n        /* \"contracts/ERC20.sol\":2237:2242  owner */\n      dup5\n        /* \"contracts/ERC20.sol\":2244:2251  spender */\n      dup5\n        /* \"contracts/ERC20.sol\":2272:2278  amount */\n      dup5\n        /* \"contracts/ERC20.sol\":2253:2269  currentAllowance */\n      dup5\n        /* \"contracts/ERC20.sol\":2253:2278  currentAllowance - amount */\n      sub\n        /* \"contracts/ERC20.sol\":2228:2236  _approve */\n      tag_75\n        /* \"contracts/ERC20.sol\":2228:2279  _approve(owner, spender, currentAllowance - amount) */\n      jump\t// in\n    tag_121:\n        /* \"contracts/ERC20.sol\":1986:2313  {... */\n      pop\n        /* \"contracts/ERC20.sol\":1898:2313  function _spendAllowance(address owner, address spender, uint256 amount)internal virtual{... */\n      pop\n      pop\n      pop\n      jump\t// out\n        /* \"contracts/ERC20.sol\":3504:4038  function _transfer(address from, address to, uint256 amount)internal virtual{... */\n    tag_82:\n      sub(shl(0xa0, 0x01), 0x01)\n        /* \"contracts/ERC20.sol\":3599:3617  from != address(0) */\n      dup4\n      and\n        /* \"contracts/ERC20.sol\":3591:3659  require(from != address(0), \"ERC20: transfer from the zero address\") */\n      tag_123\n      jumpi\n      mload(0x40)\n      shl(0xe5, 0x461bcd)\n      dup2\n      mstore\n        /* \"#utility.yul\":5077:5079   */\n      0x20\n        /* \"contracts/ERC20.sol\":3591:3659  require(from != address(0), \"ERC20: transfer from the zero address\") */\n      0x04\n      dup3\n      add\n        /* \"#utility.yul\":5059:5080   */\n      mstore\n        /* \"#utility.yul\":5116:5118   */\n      0x25\n        /* \"#utility.yul\":5096:5114   */\n      0x24\n      dup3\n      add\n        /* \"#utility.yul\":5089:5119   */\n      mstore\n        /* \"#utility.yul\":5155:5189   */\n      0x45524332303a207472616e736665722066726f6d20746865207a65726f206164\n        /* \"#utility.yul\":5135:5153   */\n      0x44\n      dup3\n      add\n        /* \"#utility.yul\":5128:5190   */\n      mstore\n      shl(0xd8, 0x6472657373)\n        /* \"#utility.yul\":5206:5224   */\n      0x64\n      dup3\n      add\n        /* \"#utility.yul\":5199:5234   */\n      mstore\n        /* \"#utility.yul\":5251:5270   */\n      0x84\n      add\n        /* \"contracts/ERC20.sol\":3591:3659  require(from != address(0), \"ERC20: transfer from the zero address\") */\n      tag_94\n        /* \"#utility.yul\":4875:5276   */\n      jump\n        /* \"contracts/ERC20.sol\":3591:3659  require(from != address(0), \"ERC20: transfer from the zero address\") */\n    tag_123:\n      sub(shl(0xa0, 0x01), 0x01)\n        /* \"contracts/ERC20.sol\":3678:3694  to != address(0) */\n      dup3\n      and\n        /* \"contracts/ERC20.sol\":3670:3734  require(to != address(0), \"ERC20: transfer to the zero address\") */\n      tag_126\n      jumpi\n      mload(0x40)\n      shl(0xe5, 0x461bcd)\n      dup2\n      mstore\n        /* \"#utility.yul\":5483:5485   */\n      0x20\n        /* \"contracts/ERC20.sol\":3670:3734  require(to != address(0), \"ERC20: transfer to the zero address\") */\n      0x04\n      dup3\n      add\n        /* \"#utility.yul\":5465:5486   */\n      mstore\n        /* \"#utility.yul\":5522:5524   */\n      0x23\n        /* \"#utility.yul\":5502:5520   */\n      0x24\n      dup3\n      add\n        /* \"#utility.yul\":5495:5525   */\n      mstore\n        /* \"#utility.yul\":5561:5595   */\n      0x45524332303a207472616e7366657220746f20746865207a65726f2061646472\n        /* \"#utility.yul\":5541:5559   */\n      0x44\n      dup3\n      add\n        /* \"#utility.yul\":5534:5596   */\n      mstore\n      shl(0xe8, 0x657373)\n        /* \"#utility.yul\":5612:5630   */\n      0x64\n      dup3\n      add\n        /* \"#utility.yul\":5605:5638   */\n      mstore\n        /* \"#utility.yul\":5655:5674   */\n      0x84\n      add\n        /* \"contracts/ERC20.sol\":3670:3734  require(to != address(0), \"ERC20: transfer to the zero address\") */\n      tag_94\n        /* \"#utility.yul\":5281:5680   */\n      jump\n        /* \"contracts/ERC20.sol\":3670:3734  require(to != address(0), \"ERC20: transfer to the zero address\") */\n    tag_126:\n      sub(shl(0xa0, 0x01), 0x01)\n        /* \"contracts/ERC20.sol\":3777:3792  _balances[from] */\n      dup4\n      and\n        /* \"contracts/ERC20.sol\":3755:3774  uint256 fromBalance */\n      0x00\n        /* \"contracts/ERC20.sol\":3777:3792  _balances[from] */\n      swap1\n      dup2\n      mstore\n      0x20\n      dup2\n      swap1\n      mstore\n      0x40\n      swap1\n      keccak256\n      sload\n        /* \"contracts/ERC20.sol\":3811:3832  fromBalance >= amount */\n      dup2\n      dup2\n      lt\n      iszero\n        /* \"contracts/ERC20.sol\":3803:3875  require(fromBalance >= amount, \"Erc20: transfer amount exceeds balance\") */\n      tag_129\n      jumpi\n      mload(0x40)\n      shl(0xe5, 0x461bcd)\n      dup2\n      mstore\n        /* \"#utility.yul\":5887:5889   */\n      0x20\n        /* \"contracts/ERC20.sol\":3803:3875  require(fromBalance >= amount, \"Erc20: transfer amount exceeds balance\") */\n      0x04\n      dup3\n      add\n        /* \"#utility.yul\":5869:5890   */\n      mstore\n        /* \"#utility.yul\":5926:5928   */\n      0x26\n        /* \"#utility.yul\":5906:5924   */\n      0x24\n      dup3\n      add\n        /* \"#utility.yul\":5899:5929   */\n      mstore\n        /* \"#utility.yul\":5965:5999   */\n      0x45726332303a207472616e7366657220616d6f756e7420657863656564732062\n        /* \"#utility.yul\":5945:5963   */\n      0x44\n      dup3\n      add\n        /* \"#utility.yul\":5938:6000   */\n      mstore\n      shl(0xd0, 0x616c616e6365)\n        /* \"#utility.yul\":6016:6034   */\n      0x64\n      dup3\n      add\n        /* \"#utility.yul\":6009:6045   */\n      mstore\n        /* \"#utility.yul\":6062:6081   */\n      0x84\n      add\n        /* \"contracts/ERC20.sol\":3803:3875  require(fromBalance >= amount, \"Erc20: transfer amount exceeds balance\") */\n      tag_94\n        /* \"#utility.yul\":5685:6087   */\n      jump\n        /* \"contracts/ERC20.sol\":3803:3875  require(fromBalance >= amount, \"Erc20: transfer amount exceeds balance\") */\n    tag_129:\n      sub(shl(0xa0, 0x01), 0x01)\n        /* \"contracts/ERC20.sol\":3912:3927  _balances[from] */\n      dup5\n      dup2\n      and\n        /* \"contracts/ERC20.sol\":3912:3921  _balances */\n      0x00\n        /* \"contracts/ERC20.sol\":3912:3927  _balances[from] */\n      dup2\n      dup2\n      mstore\n      0x20\n      dup2\n      dup2\n      mstore\n      0x40\n      dup1\n      dup4\n      keccak256\n        /* \"contracts/ERC20.sol\":3912:3937  _balances[from] -= amount */\n      dup1\n      sload\n      dup9\n      swap1\n      sub\n      swap1\n      sstore\n        /* \"contracts/ERC20.sol\":3952:3965  _balances[to] */\n      swap4\n      dup8\n      and\n      dup1\n      dup4\n      mstore\n      swap2\n      dup5\n      swap1\n      keccak256\n        /* \"contracts/ERC20.sol\":3952:3975  _balances[to] += amount */\n      dup1\n      sload\n      dup8\n      add\n      swap1\n      sstore\n        /* \"contracts/ERC20.sol\":4002:4028  Transfer(from, to, amount) */\n      swap3\n      mload\n        /* \"#utility.yul\":1342:1367   */\n      dup6\n      dup2\n      mstore\n        /* \"contracts/ERC20.sol\":3952:3965  _balances[to] */\n      swap1\n      swap3\n        /* \"contracts/ERC20.sol\":4002:4028  Transfer(from, to, amount) */\n      0xddf252ad1be2c89b69c2b068fc378daa952ba7f163c4a11628f55a4df523b3ef\n      swap2\n        /* \"#utility.yul\":1315:1333   */\n      add\n        /* \"contracts/ERC20.sol\":4002:4028  Transfer(from, to, amount) */\n      mload(0x40)\n      dup1\n      swap2\n      sub\n      swap1\n      log3\n        /* \"contracts/ERC20.sol\":3580:4038  {... */\n      pop\n        /* \"contracts/ERC20.sol\":3504:4038  function _transfer(address from, address to, uint256 amount)internal virtual{... */\n      pop\n      pop\n      pop\n      jump\t// out\n        /* \"#utility.yul\":14:562   */\n    tag_18:\n        /* \"#utility.yul\":126:130   */\n      0x00\n        /* \"#utility.yul\":155:157   */\n      0x20\n        /* \"#utility.yul\":184:186   */\n      dup1\n        /* \"#utility.yul\":173:182   */\n      dup4\n        /* \"#utility.yul\":166:187   */\n      mstore\n        /* \"#utility.yul\":216:222   */\n      dup4\n        /* \"#utility.yul\":210:223   */\n      mload\n        /* \"#utility.yul\":259:265   */\n      dup1\n        /* \"#utility.yul\":254:256   */\n      dup3\n        /* \"#utility.yul\":243:252   */\n      dup6\n        /* \"#utility.yul\":239:257   */\n      add\n        /* \"#utility.yul\":232:266   */\n      mstore\n        /* \"#utility.yul\":284:285   */\n      0x00\n        /* \"#utility.yul\":294:434   */\n    tag_136:\n        /* \"#utility.yul\":308:314   */\n      dup2\n        /* \"#utility.yul\":305:306   */\n      dup2\n        /* \"#utility.yul\":302:315   */\n      lt\n        /* \"#utility.yul\":294:434   */\n      iszero\n      tag_138\n      jumpi\n        /* \"#utility.yul\":403:417   */\n      dup6\n      dup2\n      add\n        /* \"#utility.yul\":399:422   */\n      dup4\n      add\n        /* \"#utility.yul\":393:423   */\n      mload\n        /* \"#utility.yul\":369:386   */\n      dup6\n      dup3\n      add\n        /* \"#utility.yul\":388:390   */\n      0x40\n        /* \"#utility.yul\":365:391   */\n      add\n        /* \"#utility.yul\":358:424   */\n      mstore\n        /* \"#utility.yul\":323:333   */\n      dup3\n      add\n        /* \"#utility.yul\":294:434   */\n      jump(tag_136)\n    tag_138:\n        /* \"#utility.yul\":298:301   */\n      pop\n        /* \"#utility.yul\":483:484   */\n      0x00\n        /* \"#utility.yul\":478:480   */\n      0x40\n        /* \"#utility.yul\":469:475   */\n      dup3\n        /* \"#utility.yul\":458:467   */\n      dup7\n        /* \"#utility.yul\":454:476   */\n      add\n        /* \"#utility.yul\":450:481   */\n      add\n        /* \"#utility.yul\":443:485   */\n      mstore\n        /* \"#utility.yul\":553:555   */\n      0x40\n        /* \"#utility.yul\":546:548   */\n      0x1f\n        /* \"#utility.yul\":542:549   */\n      not\n        /* \"#utility.yul\":537:539   */\n      0x1f\n        /* \"#utility.yul\":529:535   */\n      dup4\n        /* \"#utility.yul\":525:540   */\n      add\n        /* \"#utility.yul\":521:550   */\n      and\n        /* \"#utility.yul\":510:519   */\n      dup6\n        /* \"#utility.yul\":506:551   */\n      add\n        /* \"#utility.yul\":502:556   */\n      add\n        /* \"#utility.yul\":494:556   */\n      swap3\n      pop\n      pop\n      pop\n        /* \"#utility.yul\":14:562   */\n      swap3\n      swap2\n      pop\n      pop\n      jump\t// out\n        /* \"#utility.yul\":567:740   */\n    tag_133:\n        /* \"#utility.yul\":635:655   */\n      dup1\n      calldataload\n      sub(shl(0xa0, 0x01), 0x01)\n        /* \"#utility.yul\":684:715   */\n      dup2\n      and\n        /* \"#utility.yul\":674:716   */\n      dup2\n      eq\n        /* \"#utility.yul\":664:734   */\n      tag_140\n      jumpi\n        /* \"#utility.yul\":730:731   */\n      0x00\n        /* \"#utility.yul\":727:728   */\n      dup1\n        /* \"#utility.yul\":720:732   */\n      revert\n        /* \"#utility.yul\":664:734   */\n    tag_140:\n        /* \"#utility.yul\":567:740   */\n      swap2\n      swap1\n      pop\n      jump\t// out\n        /* \"#utility.yul\":745:999   */\n    tag_21:\n        /* \"#utility.yul\":813:819   */\n      0x00\n        /* \"#utility.yul\":821:827   */\n      dup1\n        /* \"#utility.yul\":874:876   */\n      0x40\n        /* \"#utility.yul\":862:871   */\n      dup4\n        /* \"#utility.yul\":853:860   */\n      dup6\n        /* \"#utility.yul\":849:872   */\n      sub\n        /* \"#utility.yul\":845:877   */\n      slt\n        /* \"#utility.yul\":842:894   */\n      iszero\n      tag_142\n      jumpi\n        /* \"#utility.yul\":890:891   */\n      0x00\n        /* \"#utility.yul\":887:888   */\n      dup1\n        /* \"#utility.yul\":880:892   */\n      revert\n        /* \"#utility.yul\":842:894   */\n    tag_142:\n        /* \"#utility.yul\":913:942   */\n      tag_143\n        /* \"#utility.yul\":932:941   */\n      dup4\n        /* \"#utility.yul\":913:942   */\n      tag_133\n      jump\t// in\n    tag_143:\n        /* \"#utility.yul\":903:942   */\n      swap5\n        /* \"#utility.yul\":989:991   */\n      0x20\n        /* \"#utility.yul\":974:992   */\n      swap4\n      swap1\n      swap4\n      add\n        /* \"#utility.yul\":961:993   */\n      calldataload\n      swap4\n      pop\n      pop\n      pop\n        /* \"#utility.yul\":745:999   */\n      jump\t// out\n        /* \"#utility.yul\":1378:1706   */\n    tag_31:\n        /* \"#utility.yul\":1455:1461   */\n      0x00\n        /* \"#utility.yul\":1463:1469   */\n      dup1\n        /* \"#utility.yul\":1471:1477   */\n      0x00\n        /* \"#utility.yul\":1524:1526   */\n      0x60\n        /* \"#utility.yul\":1512:1521   */\n      dup5\n        /* \"#utility.yul\":1503:1510   */\n      dup7\n        /* \"#utility.yul\":1499:1522   */\n      sub\n        /* \"#utility.yul\":1495:1527   */\n      slt\n        /* \"#utility.yul\":1492:1544   */\n      iszero\n      tag_147\n      jumpi\n        /* \"#utility.yul\":1540:1541   */\n      0x00\n        /* \"#utility.yul\":1537:1538   */\n      dup1\n        /* \"#utility.yul\":1530:1542   */\n      revert\n        /* \"#utility.yul\":1492:1544   */\n    tag_147:\n        /* \"#utility.yul\":1563:1592   */\n      tag_148\n        /* \"#utility.yul\":1582:1591   */\n      dup5\n        /* \"#utility.yul\":1563:1592   */\n      tag_133\n      jump\t// in\n    tag_148:\n        /* \"#utility.yul\":1553:1592   */\n      swap3\n      pop\n        /* \"#utility.yul\":1611:1649   */\n      tag_149\n        /* \"#utility.yul\":1645:1647   */\n      0x20\n        /* \"#utility.yul\":1634:1643   */\n      dup6\n        /* \"#utility.yul\":1630:1648   */\n      add\n        /* \"#utility.yul\":1611:1649   */\n      tag_133\n      jump\t// in\n    tag_149:\n        /* \"#utility.yul\":1601:1649   */\n      swap2\n      pop\n        /* \"#utility.yul\":1696:1698   */\n      0x40\n        /* \"#utility.yul\":1685:1694   */\n      dup5\n        /* \"#utility.yul\":1681:1699   */\n      add\n        /* \"#utility.yul\":1668:1700   */\n      calldataload\n        /* \"#utility.yul\":1658:1700   */\n      swap1\n      pop\n        /* \"#utility.yul\":1378:1706   */\n      swap3\n      pop\n      swap3\n      pop\n      swap3\n      jump\t// out\n        /* \"#utility.yul\":1900:2086   */\n    tag_40:\n        /* \"#utility.yul\":1959:1965   */\n      0x00\n        /* \"#utility.yul\":2012:2014   */\n      0x20\n        /* \"#utility.yul\":2000:2009   */\n      dup3\n        /* \"#utility.yul\":1991:1998   */\n      dup5\n        /* \"#utility.yul\":1987:2010   */\n      sub\n        /* \"#utility.yul\":1983:2015   */\n      slt\n        /* \"#utility.yul\":1980:2032   */\n      iszero\n      tag_152\n      jumpi\n        /* \"#utility.yul\":2028:2029   */\n      0x00\n        /* \"#utility.yul\":2025:2026   */\n      dup1\n        /* \"#utility.yul\":2018:2030   */\n      revert\n        /* \"#utility.yul\":1980:2032   */\n    tag_152:\n        /* \"#utility.yul\":2051:2080   */\n      tag_153\n        /* \"#utility.yul\":2070:2079   */\n      dup3\n        /* \"#utility.yul\":2051:2080   */\n      tag_133\n      jump\t// in\n    tag_153:\n        /* \"#utility.yul\":2041:2080   */\n      swap4\n        /* \"#utility.yul\":1900:2086   */\n      swap3\n      pop\n      pop\n      pop\n      jump\t// out\n        /* \"#utility.yul\":2091:2351   */\n    tag_56:\n        /* \"#utility.yul\":2159:2165   */\n      0x00\n        /* \"#utility.yul\":2167:2173   */\n      dup1\n        /* \"#utility.yul\":2220:2222   */\n      0x40\n        /* \"#utility.yul\":2208:2217   */\n      dup4\n        /* \"#utility.yul\":2199:2206   */\n      dup6\n        /* \"#utility.yul\":2195:2218   */\n      sub\n        /* \"#utility.yul\":2191:2223   */\n      slt\n        /* \"#utility.yul\":2188:2240   */\n      iszero\n      tag_155\n      jumpi\n        /* \"#utility.yul\":2236:2237   */\n      0x00\n        /* \"#utility.yul\":2233:2234   */\n      dup1\n        /* \"#utility.yul\":2226:2238   */\n      revert\n        /* \"#utility.yul\":2188:2240   */\n    tag_155:\n        /* \"#utility.yul\":2259:2288   */\n      tag_156\n        /* \"#utility.yul\":2278:2287   */\n      dup4\n        /* \"#utility.yul\":2259:2288   */\n      tag_133\n      jump\t// in\n    tag_156:\n        /* \"#utility.yul\":2249:2288   */\n      swap2\n      pop\n        /* \"#utility.yul\":2307:2345   */\n      tag_157\n        /* \"#utility.yul\":2341:2343   */\n      0x20\n        /* \"#utility.yul\":2330:2339   */\n      dup5\n        /* \"#utility.yul\":2326:2344   */\n      add\n        /* \"#utility.yul\":2307:2345   */\n      tag_133\n      jump\t// in\n    tag_157:\n        /* \"#utility.yul\":2297:2345   */\n      swap1\n      pop\n        /* \"#utility.yul\":2091:2351   */\n      swap3\n      pop\n      swap3\n      swap1\n      pop\n      jump\t// out\n        /* \"#utility.yul\":2356:2678   */\n    tag_61:\n        /* \"#utility.yul\":2433:2439   */\n      0x00\n        /* \"#utility.yul\":2441:2447   */\n      dup1\n        /* \"#utility.yul\":2449:2455   */\n      0x00\n        /* \"#utility.yul\":2502:2504   */\n      0x60\n        /* \"#utility.yul\":2490:2499   */\n      dup5\n        /* \"#utility.yul\":2481:2488   */\n      dup7\n        /* \"#utility.yul\":2477:2500   */\n      sub\n        /* \"#utility.yul\":2473:2505   */\n      slt\n        /* \"#utility.yul\":2470:2522   */\n      iszero\n      tag_159\n      jumpi\n        /* \"#utility.yul\":2518:2519   */\n      0x00\n        /* \"#utility.yul\":2515:2516   */\n      dup1\n        /* \"#utility.yul\":2508:2520   */\n      revert\n        /* \"#utility.yul\":2470:2522   */\n    tag_159:\n        /* \"#utility.yul\":2541:2570   */\n      tag_160\n        /* \"#utility.yul\":2560:2569   */\n      dup5\n        /* \"#utility.yul\":2541:2570   */\n      tag_133\n      jump\t// in\n    tag_160:\n        /* \"#utility.yul\":2531:2570   */\n      swap6\n        /* \"#utility.yul\":2617:2619   */\n      0x20\n        /* \"#utility.yul\":2602:2620   */\n      dup6\n      add\n        /* \"#utility.yul\":2589:2621   */\n      calldataload\n      swap6\n      pop\n        /* \"#utility.yul\":2668:2670   */\n      0x40\n        /* \"#utility.yul\":2653:2671   */\n      swap1\n      swap5\n      add\n        /* \"#utility.yul\":2640:2672   */\n      calldataload\n      swap4\n        /* \"#utility.yul\":2356:2678   */\n      swap3\n      pop\n      pop\n      pop\n      jump\t// out\n        /* \"#utility.yul\":2683:3063   */\n    tag_66:\n        /* \"#utility.yul\":2762:2763   */\n      0x01\n        /* \"#utility.yul\":2758:2770   */\n      dup2\n      dup2\n      shr\n      swap1\n        /* \"#utility.yul\":2805:2817   */\n      dup3\n      and\n      dup1\n        /* \"#utility.yul\":2826:2887   */\n      tag_162\n      jumpi\n        /* \"#utility.yul\":2880:2884   */\n      0x7f\n        /* \"#utility.yul\":2872:2878   */\n      dup3\n        /* \"#utility.yul\":2868:2885   */\n      and\n        /* \"#utility.yul\":2858:2885   */\n      swap2\n      pop\n        /* \"#utility.yul\":2826:2887   */\n    tag_162:\n        /* \"#utility.yul\":2933:2935   */\n      0x20\n        /* \"#utility.yul\":2925:2931   */\n      dup3\n        /* \"#utility.yul\":2922:2936   */\n      lt\n        /* \"#utility.yul\":2902:2920   */\n      dup2\n        /* \"#utility.yul\":2899:2937   */\n      sub\n        /* \"#utility.yul\":2896:3057   */\n      tag_163\n      jumpi\n        /* \"#utility.yul\":2979:2989   */\n      0x4e487b71\n        /* \"#utility.yul\":2974:2977   */\n      0xe0\n        /* \"#utility.yul\":2970:2990   */\n      shl\n        /* \"#utility.yul\":2967:2968   */\n      0x00\n        /* \"#utility.yul\":2960:2991   */\n      mstore\n        /* \"#utility.yul\":3014:3018   */\n      0x22\n        /* \"#utility.yul\":3011:3012   */\n      0x04\n        /* \"#utility.yul\":3004:3019   */\n      mstore\n        /* \"#utility.yul\":3042:3046   */\n      0x24\n        /* \"#utility.yul\":3039:3040   */\n      0x00\n        /* \"#utility.yul\":3032:3047   */\n      revert\n        /* \"#utility.yul\":2896:3057   */\n    tag_163:\n      pop\n        /* \"#utility.yul\":2683:3063   */\n      swap2\n      swap1\n      pop\n      jump\t// out\n        /* \"#utility.yul\":3475:3697   */\n    tag_105:\n        /* \"#utility.yul\":3540:3549   */\n      dup1\n      dup3\n      add\n        /* \"#utility.yul\":3561:3571   */\n      dup1\n      dup3\n      gt\n        /* \"#utility.yul\":3558:3691   */\n      iszero\n      tag_71\n      jumpi\n        /* \"#utility.yul\":3613:3623   */\n      0x4e487b71\n        /* \"#utility.yul\":3608:3611   */\n      0xe0\n        /* \"#utility.yul\":3604:3624   */\n      shl\n        /* \"#utility.yul\":3601:3602   */\n      0x00\n        /* \"#utility.yul\":3594:3625   */\n      mstore\n        /* \"#utility.yul\":3648:3652   */\n      0x11\n        /* \"#utility.yul\":3645:3646   */\n      0x04\n        /* \"#utility.yul\":3638:3653   */\n      mstore\n        /* \"#utility.yul\":3676:3680   */\n      0x24\n        /* \"#utility.yul\":3673:3674   */\n      0x00\n        /* \"#utility.yul\":3666:3681   */\n      revert\n\n    auxdata: 0xa2646970667358221220cc736677fb5bf674881464f9c1def0eb48a0fd0091b50d0d5783be7924c4d47c64736f6c63430008110033\n}\n",
				"bytecode": {
					"linkReferences": {},
					"object": "60806040523480156200001157600080fd5b5060405162000bd338038062000bd383398101604081905262000034916200011f565b600262000042838262000218565b50600362000051828262000218565b505050620002e4565b634e487b7160e01b600052604160045260246000fd5b600082601f8301126200008257600080fd5b81516001600160401b03808211156200009f576200009f6200005a565b604051601f8301601f19908116603f01168101908282118183101715620000ca57620000ca6200005a565b81604052838152602092508683858801011115620000e757600080fd5b600091505b838210156200010b5785820183015181830184015290820190620000ec565b600093810190920192909252949350505050565b600080604083850312156200013357600080fd5b82516001600160401b03808211156200014b57600080fd5b620001598683870162000070565b935060208501519150808211156200017057600080fd5b506200017f8582860162000070565b9150509250929050565b600181811c908216806200019e57607f821691505b602082108103620001bf57634e487b7160e01b600052602260045260246000fd5b50919050565b601f8211156200021357600081815260208120601f850160051c81016020861015620001ee5750805b601f850160051c820191505b818110156200020f57828155600101620001fa565b5050505b505050565b81516001600160401b038111156200023457620002346200005a565b6200024c8162000245845462000189565b84620001c5565b602080601f8311600181146200028457600084156200026b5750858301515b600019600386901b1c1916600185901b1785556200020f565b600085815260208120601f198616915b82811015620002b55788860151825594840194600190910190840162000294565b5085821015620002d45787850151600019600388901b60f8161c191681555b5050505050600190811b01905550565b6108df80620002f46000396000f3fe608060405234801561001057600080fd5b50600436106100a95760003560e01c806370a082311161007157806370a082311461012357806395d89b411461014c578063a457c2d714610154578063a9059cbb14610167578063dd62ed3e1461017a578063ff61011a146101b357600080fd5b806306fdde03146100ae578063095ea7b3146100cc57806318160ddd146100ef57806323b872dd14610101578063313ce56714610114575b600080fd5b6100b66101c6565b6040516100c391906106f6565b60405180910390f35b6100df6100da366004610760565b610258565b60405190151581526020016100c3565b6004545b6040519081526020016100c3565b6100df61010f36600461078a565b610272565b604051601281526020016100c3565b6100f36101313660046107c6565b6001600160a01b031660009081526020819052604090205490565b6100b6610296565b6100df610162366004610760565b6102a5565b6100df610175366004610760565b61033d565b6100f36101883660046107e8565b6001600160a01b03918216600090815260016020908152604080832093909416825291909152205490565b6100df6101c136600461081b565b61034b565b6060600280546101d59061084e565b80601f01602080910402602001604051908101604052809291908181526020018280546102019061084e565b801561024e5780601f106102235761010080835404028352916020019161024e565b820191906000526020600020905b81548152906001019060200180831161023157829003601f168201915b5050505050905090565b600033610266818585610392565b60019150505b92915050565b6000336102808582856104bd565b61028b85858561054f565b506001949350505050565b6060600380546101d59061084e565b3360008181526001602090815260408083206001600160a01b0387168452909152812054909190838110156103305760405162461bcd60e51b815260206004820152602660248201527f45726332303a2064656372656173656420616c6c6f77616e63652062656c6c6f60448201526577207a65726f60d01b60648201526084015b60405180910390fd5b61028b8286868403610392565b60003361026681858561054f565b3360008181526001602090815260408083206001600160a01b038816845290915281205490919061038682876103818785610888565b610392565b50600195945050505050565b6001600160a01b0383166103f65760405162461bcd60e51b815260206004820152602560248201527f45524332303a20617070726f7665206f776e657220746865207a65726f206164604482015264647265737360d81b6064820152608401610327565b6001600160a01b03821661045c5760405162461bcd60e51b815260206004820152602760248201527f45524332303a20617070726f7665207370656e64657220746865207a65726f206044820152666164647265737360c81b6064820152608401610327565b6001600160a01b0383811660008181526001602090815260408083209487168084529482529182902085905590518481527f8c5be1e5ebec7d5bd14f71427d1e84f3dd0314c0f7b2291e5b200ac8c7c3b925910160405180910390a3505050565b6001600160a01b038381166000908152600160209081526040808320938616835292905220546000198114610549578181101561053c5760405162461bcd60e51b815260206004820152601e60248201527f45524332303a20696e63756666696369656e7420616c6c6f77616e63652000006044820152606401610327565b6105498484848403610392565b50505050565b6001600160a01b0383166105b35760405162461bcd60e51b815260206004820152602560248201527f45524332303a207472616e736665722066726f6d20746865207a65726f206164604482015264647265737360d81b6064820152608401610327565b6001600160a01b0382166106155760405162461bcd60e51b815260206004820152602360248201527f45524332303a207472616e7366657220746f20746865207a65726f206164647260448201526265737360e81b6064820152608401610327565b6001600160a01b0383166000908152602081905260409020548181101561068d5760405162461bcd60e51b815260206004820152602660248201527f45726332303a207472616e7366657220616d6f756e7420657863656564732062604482015265616c616e636560d01b6064820152608401610327565b6001600160a01b038481166000818152602081815260408083208054889003905593871680835291849020805487019055925185815290927fddf252ad1be2c89b69c2b068fc378daa952ba7f163c4a11628f55a4df523b3ef910160405180910390a350505050565b600060208083528351808285015260005b8181101561072357858101830151858201604001528201610707565b506000604082860101526040601f19601f8301168501019250505092915050565b80356001600160a01b038116811461075b57600080fd5b919050565b6000806040838503121561077357600080fd5b61077c83610744565b946020939093013593505050565b60008060006060848603121561079f57600080fd5b6107a884610744565b92506107b660208501610744565b9150604084013590509250925092565b6000602082840312156107d857600080fd5b6107e182610744565b9392505050565b600080604083850312156107fb57600080fd5b61080483610744565b915061081260208401610744565b90509250929050565b60008060006060848603121561083057600080fd5b61083984610744565b95602085013595506040909401359392505050565b600181811c9082168061086257607f821691505b60208210810361088257634e487b7160e01b600052602260045260246000fd5b50919050565b8082018082111561026c57634e487b7160e01b600052601160045260246000fdfea2646970667358221220cc736677fb5bf674881464f9c1def0eb48a0fd0091b50d0d5783be7924c4d47c64736f6c63430008110033",
					"opcodes": "PUSH1 0x80 PUSH1 0x40 MSTORE CALLVALUE DUP1 ISZERO PUSH3 0x11 JUMPI PUSH1 0x0 DUP1 REVERT JUMPDEST POP PUSH1 0x40 MLOAD PUSH3 0xBD3 CODESIZE SUB DUP1 PUSH3 0xBD3 DUP4 CODECOPY DUP2 ADD PUSH1 0x40 DUP2 SWAP1 MSTORE PUSH3 0x34 SWAP2 PUSH3 0x11F JUMP JUMPDEST PUSH1 0x2 PUSH3 0x42 DUP4 DUP3 PUSH3 0x218 JUMP JUMPDEST POP PUSH1 0x3 PUSH3 0x51 DUP3 DUP3 PUSH3 0x218 JUMP JUMPDEST POP POP POP PUSH3 0x2E4 JUMP JUMPDEST PUSH4 0x4E487B71 PUSH1 0xE0 SHL PUSH1 0x0 MSTORE PUSH1 0x41 PUSH1 0x4 MSTORE PUSH1 0x24 PUSH1 0x0 REVERT JUMPDEST PUSH1 0x0 DUP3 PUSH1 0x1F DUP4 ADD SLT PUSH3 0x82 JUMPI PUSH1 0x0 DUP1 REVERT JUMPDEST DUP2 MLOAD PUSH1 0x1 PUSH1 0x1 PUSH1 0x40 SHL SUB DUP1 DUP3 GT ISZERO PUSH3 0x9F JUMPI PUSH3 0x9F PUSH3 0x5A JUMP JUMPDEST PUSH1 0x40 MLOAD PUSH1 0x1F DUP4 ADD PUSH1 0x1F NOT SWAP1 DUP2 AND PUSH1 0x3F ADD AND DUP2 ADD SWAP1 DUP3 DUP3 GT DUP2 DUP4 LT OR ISZERO PUSH3 0xCA JUMPI PUSH3 0xCA PUSH3 0x5A JUMP JUMPDEST DUP2 PUSH1 0x40 MSTORE DUP4 DUP2 MSTORE PUSH1 0x20 SWAP3 POP DUP7 DUP4 DUP6 DUP9 ADD ADD GT ISZERO PUSH3 0xE7 JUMPI PUSH1 0x0 DUP1 REVERT JUMPDEST PUSH1 0x0 SWAP2 POP JUMPDEST DUP4 DUP3 LT ISZERO PUSH3 0x10B JUMPI DUP6 DUP3 ADD DUP4 ADD MLOAD DUP2 DUP4 ADD DUP5 ADD MSTORE SWAP1 DUP3 ADD SWAP1 PUSH3 0xEC JUMP JUMPDEST PUSH1 0x0 SWAP4 DUP2 ADD SWAP1 SWAP3 ADD SWAP3 SWAP1 SWAP3 MSTORE SWAP5 SWAP4 POP POP POP POP JUMP JUMPDEST PUSH1 0x0 DUP1 PUSH1 0x40 DUP4 DUP6 SUB SLT ISZERO PUSH3 0x133 JUMPI PUSH1 0x0 DUP1 REVERT JUMPDEST DUP3 MLOAD PUSH1 0x1 PUSH1 0x1 PUSH1 0x40 SHL SUB DUP1 DUP3 GT ISZERO PUSH3 0x14B JUMPI PUSH1 0x0 DUP1 REVERT JUMPDEST PUSH3 0x159 DUP7 DUP4 DUP8 ADD PUSH3 0x70 JUMP JUMPDEST SWAP4 POP PUSH1 0x20 DUP6 ADD MLOAD SWAP2 POP DUP1 DUP3 GT ISZERO PUSH3 0x170 JUMPI PUSH1 0x0 DUP1 REVERT JUMPDEST POP PUSH3 0x17F DUP6 DUP3 DUP7 ADD PUSH3 0x70 JUMP JUMPDEST SWAP2 POP POP SWAP3 POP SWAP3 SWAP1 POP JUMP JUMPDEST PUSH1 0x1 DUP2 DUP2 SHR SWAP1 DUP3 AND DUP1 PUSH3 0x19E JUMPI PUSH1 0x7F DUP3 AND SWAP2 POP JUMPDEST PUSH1 0x20 DUP3 LT DUP2 SUB PUSH3 0x1BF JUMPI PUSH4 0x4E487B71 PUSH1 0xE0 SHL PUSH1 0x0 MSTORE PUSH1 0x22 PUSH1 0x4 MSTORE PUSH1 0x24 PUSH1 0x0 REVERT JUMPDEST POP SWAP2 SWAP1 POP JUMP JUMPDEST PUSH1 0x1F DUP3 GT ISZERO PUSH3 0x213 JUMPI PUSH1 0x0 DUP2 DUP2 MSTORE PUSH1 0x20 DUP2 KECCAK256 PUSH1 0x1F DUP6 ADD PUSH1 0x5 SHR DUP2 ADD PUSH1 0x20 DUP7 LT ISZERO PUSH3 0x1EE JUMPI POP DUP1 JUMPDEST PUSH1 0x1F DUP6 ADD PUSH1 0x5 SHR DUP3 ADD SWAP2 POP JUMPDEST DUP2 DUP2 LT ISZERO PUSH3 0x20F JUMPI DUP3 DUP2 SSTORE PUSH1 0x1 ADD PUSH3 0x1FA JUMP JUMPDEST POP POP POP JUMPDEST POP POP POP JUMP JUMPDEST DUP2 MLOAD PUSH1 0x1 PUSH1 0x1 PUSH1 0x40 SHL SUB DUP2 GT ISZERO PUSH3 0x234 JUMPI PUSH3 0x234 PUSH3 0x5A JUMP JUMPDEST PUSH3 0x24C DUP2 PUSH3 0x245 DUP5 SLOAD PUSH3 0x189 JUMP JUMPDEST DUP5 PUSH3 0x1C5 JUMP JUMPDEST PUSH1 0x20 DUP1 PUSH1 0x1F DUP4 GT PUSH1 0x1 DUP2 EQ PUSH3 0x284 JUMPI PUSH1 0x0 DUP5 ISZERO PUSH3 0x26B JUMPI POP DUP6 DUP4 ADD MLOAD JUMPDEST PUSH1 0x0 NOT PUSH1 0x3 DUP7 SWAP1 SHL SHR NOT AND PUSH1 0x1 DUP6 SWAP1 SHL OR DUP6 SSTORE PUSH3 0x20F JUMP JUMPDEST PUSH1 0x0 DUP6 DUP2 MSTORE PUSH1 0x20 DUP2 KECCAK256 PUSH1 0x1F NOT DUP7 AND SWAP2 JUMPDEST DUP3 DUP2 LT ISZERO PUSH3 0x2B5 JUMPI DUP9 DUP7 ADD MLOAD DUP3 SSTORE SWAP5 DUP5 ADD SWAP5 PUSH1 0x1 SWAP1 SWAP2 ADD SWAP1 DUP5 ADD PUSH3 0x294 JUMP JUMPDEST POP DUP6 DUP3 LT ISZERO PUSH3 0x2D4 JUMPI DUP8 DUP6 ADD MLOAD PUSH1 0x0 NOT PUSH1 0x3 DUP9 SWAP1 SHL PUSH1 0xF8 AND SHR NOT AND DUP2 SSTORE JUMPDEST POP POP POP POP POP PUSH1 0x1 SWAP1 DUP2 SHL ADD SWAP1 SSTORE POP JUMP JUMPDEST PUSH2 0x8DF DUP1 PUSH3 0x2F4 PUSH1 0x0 CODECOPY PUSH1 0x0 RETURN INVALID PUSH1 0x80 PUSH1 0x40 MSTORE CALLVALUE DUP1 ISZERO PUSH2 0x10 JUMPI PUSH1 0x0 DUP1 REVERT JUMPDEST POP PUSH1 0x4 CALLDATASIZE LT PUSH2 0xA9 JUMPI PUSH1 0x0 CALLDATALOAD PUSH1 0xE0 SHR DUP1 PUSH4 0x70A08231 GT PUSH2 0x71 JUMPI DUP1 PUSH4 0x70A08231 EQ PUSH2 0x123 JUMPI DUP1 PUSH4 0x95D89B41 EQ PUSH2 0x14C JUMPI DUP1 PUSH4 0xA457C2D7 EQ PUSH2 0x154 JUMPI DUP1 PUSH4 0xA9059CBB EQ PUSH2 0x167 JUMPI DUP1 PUSH4 0xDD62ED3E EQ PUSH2 0x17A JUMPI DUP1 PUSH4 0xFF61011A EQ PUSH2 0x1B3 JUMPI PUSH1 0x0 DUP1 REVERT JUMPDEST DUP1 PUSH4 0x6FDDE03 EQ PUSH2 0xAE JUMPI DUP1 PUSH4 0x95EA7B3 EQ PUSH2 0xCC JUMPI DUP1 PUSH4 0x18160DDD EQ PUSH2 0xEF JUMPI DUP1 PUSH4 0x23B872DD EQ PUSH2 0x101 JUMPI DUP1 PUSH4 0x313CE567 EQ PUSH2 0x114 JUMPI JUMPDEST PUSH1 0x0 DUP1 REVERT JUMPDEST PUSH2 0xB6 PUSH2 0x1C6 JUMP JUMPDEST PUSH1 0x40 MLOAD PUSH2 0xC3 SWAP2 SWAP1 PUSH2 0x6F6 JUMP JUMPDEST PUSH1 0x40 MLOAD DUP1 SWAP2 SUB SWAP1 RETURN JUMPDEST PUSH2 0xDF PUSH2 0xDA CALLDATASIZE PUSH1 0x4 PUSH2 0x760 JUMP JUMPDEST PUSH2 0x258 JUMP JUMPDEST PUSH1 0x40 MLOAD SWAP1 ISZERO ISZERO DUP2 MSTORE PUSH1 0x20 ADD PUSH2 0xC3 JUMP JUMPDEST PUSH1 0x4 SLOAD JUMPDEST PUSH1 0x40 MLOAD SWAP1 DUP2 MSTORE PUSH1 0x20 ADD PUSH2 0xC3 JUMP JUMPDEST PUSH2 0xDF PUSH2 0x10F CALLDATASIZE PUSH1 0x4 PUSH2 0x78A JUMP JUMPDEST PUSH2 0x272 JUMP JUMPDEST PUSH1 0x40 MLOAD PUSH1 0x12 DUP2 MSTORE PUSH1 0x20 ADD PUSH2 0xC3 JUMP JUMPDEST PUSH2 0xF3 PUSH2 0x131 CALLDATASIZE PUSH1 0x4 PUSH2 0x7C6 JUMP JUMPDEST PUSH1 0x1 PUSH1 0x1 PUSH1 0xA0 SHL SUB AND PUSH1 0x0 SWAP1 DUP2 MSTORE PUSH1 0x20 DUP2 SWAP1 MSTORE PUSH1 0x40 SWAP1 KECCAK256 SLOAD SWAP1 JUMP JUMPDEST PUSH2 0xB6 PUSH2 0x296 JUMP JUMPDEST PUSH2 0xDF PUSH2 0x162 CALLDATASIZE PUSH1 0x4 PUSH2 0x760 JUMP JUMPDEST PUSH2 0x2A5 JUMP JUMPDEST PUSH2 0xDF PUSH2 0x175 CALLDATASIZE PUSH1 0x4 PUSH2 0x760 JUMP JUMPDEST PUSH2 0x33D JUMP JUMPDEST PUSH2 0xF3 PUSH2 0x188 CALLDATASIZE PUSH1 0x4 PUSH2 0x7E8 JUMP JUMPDEST PUSH1 0x1 PUSH1 0x1 PUSH1 0xA0 SHL SUB SWAP2 DUP3 AND PUSH1 0x0 SWAP1 DUP2 MSTORE PUSH1 0x1 PUSH1 0x20 SWAP1 DUP2 MSTORE PUSH1 0x40 DUP1 DUP4 KECCAK256 SWAP4 SWAP1 SWAP5 AND DUP3 MSTORE SWAP2 SWAP1 SWAP2 MSTORE KECCAK256 SLOAD SWAP1 JUMP JUMPDEST PUSH2 0xDF PUSH2 0x1C1 CALLDATASIZE PUSH1 0x4 PUSH2 0x81B JUMP JUMPDEST PUSH2 0x34B JUMP JUMPDEST PUSH1 0x60 PUSH1 0x2 DUP1 SLOAD PUSH2 0x1D5 SWAP1 PUSH2 0x84E JUMP JUMPDEST DUP1 PUSH1 0x1F ADD PUSH1 0x20 DUP1 SWAP2 DIV MUL PUSH1 0x20 ADD PUSH1 0x40 MLOAD SWAP1 DUP2 ADD PUSH1 0x40 MSTORE DUP1 SWAP3 SWAP2 SWAP1 DUP2 DUP2 MSTORE PUSH1 0x20 ADD DUP3 DUP1 SLOAD PUSH2 0x201 SWAP1 PUSH2 0x84E JUMP JUMPDEST DUP1 ISZERO PUSH2 0x24E JUMPI DUP1 PUSH1 0x1F LT PUSH2 0x223 JUMPI PUSH2 0x100 DUP1 DUP4 SLOAD DIV MUL DUP4 MSTORE SWAP2 PUSH1 0x20 ADD SWAP2 PUSH2 0x24E JUMP JUMPDEST DUP3 ADD SWAP2 SWAP1 PUSH1 0x0 MSTORE PUSH1 0x20 PUSH1 0x0 KECCAK256 SWAP1 JUMPDEST DUP2 SLOAD DUP2 MSTORE SWAP1 PUSH1 0x1 ADD SWAP1 PUSH1 0x20 ADD DUP1 DUP4 GT PUSH2 0x231 JUMPI DUP3 SWAP1 SUB PUSH1 0x1F AND DUP3 ADD SWAP2 JUMPDEST POP POP POP POP POP SWAP1 POP SWAP1 JUMP JUMPDEST PUSH1 0x0 CALLER PUSH2 0x266 DUP2 DUP6 DUP6 PUSH2 0x392 JUMP JUMPDEST PUSH1 0x1 SWAP2 POP POP JUMPDEST SWAP3 SWAP2 POP POP JUMP JUMPDEST PUSH1 0x0 CALLER PUSH2 0x280 DUP6 DUP3 DUP6 PUSH2 0x4BD JUMP JUMPDEST PUSH2 0x28B DUP6 DUP6 DUP6 PUSH2 0x54F JUMP JUMPDEST POP PUSH1 0x1 SWAP5 SWAP4 POP POP POP POP JUMP JUMPDEST PUSH1 0x60 PUSH1 0x3 DUP1 SLOAD PUSH2 0x1D5 SWAP1 PUSH2 0x84E JUMP JUMPDEST CALLER PUSH1 0x0 DUP2 DUP2 MSTORE PUSH1 0x1 PUSH1 0x20 SWAP1 DUP2 MSTORE PUSH1 0x40 DUP1 DUP4 KECCAK256 PUSH1 0x1 PUSH1 0x1 PUSH1 0xA0 SHL SUB DUP8 AND DUP5 MSTORE SWAP1 SWAP2 MSTORE DUP2 KECCAK256 SLOAD SWAP1 SWAP2 SWAP1 DUP4 DUP2 LT ISZERO PUSH2 0x330 JUMPI PUSH1 0x40 MLOAD PUSH3 0x461BCD PUSH1 0xE5 SHL DUP2 MSTORE PUSH1 0x20 PUSH1 0x4 DUP3 ADD MSTORE PUSH1 0x26 PUSH1 0x24 DUP3 ADD MSTORE PUSH32 0x45726332303A2064656372656173656420616C6C6F77616E63652062656C6C6F PUSH1 0x44 DUP3 ADD MSTORE PUSH6 0x77207A65726F PUSH1 0xD0 SHL PUSH1 0x64 DUP3 ADD MSTORE PUSH1 0x84 ADD JUMPDEST PUSH1 0x40 MLOAD DUP1 SWAP2 SUB SWAP1 REVERT JUMPDEST PUSH2 0x28B DUP3 DUP7 DUP7 DUP5 SUB PUSH2 0x392 JUMP JUMPDEST PUSH1 0x0 CALLER PUSH2 0x266 DUP2 DUP6 DUP6 PUSH2 0x54F JUMP JUMPDEST CALLER PUSH1 0x0 DUP2 DUP2 MSTORE PUSH1 0x1 PUSH1 0x20 SWAP1 DUP2 MSTORE PUSH1 0x40 DUP1 DUP4 KECCAK256 PUSH1 0x1 PUSH1 0x1 PUSH1 0xA0 SHL SUB DUP9 AND DUP5 MSTORE SWAP1 SWAP2 MSTORE DUP2 KECCAK256 SLOAD SWAP1 SWAP2 SWAP1 PUSH2 0x386 DUP3 DUP8 PUSH2 0x381 DUP8 DUP6 PUSH2 0x888 JUMP JUMPDEST PUSH2 0x392 JUMP JUMPDEST POP PUSH1 0x1 SWAP6 SWAP5 POP POP POP POP POP JUMP JUMPDEST PUSH1 0x1 PUSH1 0x1 PUSH1 0xA0 SHL SUB DUP4 AND PUSH2 0x3F6 JUMPI PUSH1 0x40 MLOAD PUSH3 0x461BCD PUSH1 0xE5 SHL DUP2 MSTORE PUSH1 0x20 PUSH1 0x4 DUP3 ADD MSTORE PUSH1 0x25 PUSH1 0x24 DUP3 ADD MSTORE PUSH32 0x45524332303A20617070726F7665206F776E657220746865207A65726F206164 PUSH1 0x44 DUP3 ADD MSTORE PUSH5 0x6472657373 PUSH1 0xD8 SHL PUSH1 0x64 DUP3 ADD MSTORE PUSH1 0x84 ADD PUSH2 0x327 JUMP JUMPDEST PUSH1 0x1 PUSH1 0x1 PUSH1 0xA0 SHL SUB DUP3 AND PUSH2 0x45C JUMPI PUSH1 0x40 MLOAD PUSH3 0x461BCD PUSH1 0xE5 SHL DUP2 MSTORE PUSH1 0x20 PUSH1 0x4 DUP3 ADD MSTORE PUSH1 0x27 PUSH1 0x24 DUP3 ADD MSTORE PUSH32 0x45524332303A20617070726F7665207370656E64657220746865207A65726F20 PUSH1 0x44 DUP3 ADD MSTORE PUSH7 0x61646472657373 PUSH1 0xC8 SHL PUSH1 0x64 DUP3 ADD MSTORE PUSH1 0x84 ADD PUSH2 0x327 JUMP JUMPDEST PUSH1 0x1 PUSH1 0x1 PUSH1 0xA0 SHL SUB DUP4 DUP2 AND PUSH1 0x0 DUP2 DUP2 MSTORE PUSH1 0x1 PUSH1 0x20 SWAP1 DUP2 MSTORE PUSH1 0x40 DUP1 DUP4 KECCAK256 SWAP5 DUP8 AND DUP1 DUP5 MSTORE SWAP5 DUP3 MSTORE SWAP2 DUP3 SWAP1 KECCAK256 DUP6 SWAP1 SSTORE SWAP1 MLOAD DUP5 DUP2 MSTORE PUSH32 0x8C5BE1E5EBEC7D5BD14F71427D1E84F3DD0314C0F7B2291E5B200AC8C7C3B925 SWAP2 ADD PUSH1 0x40 MLOAD DUP1 SWAP2 SUB SWAP1 LOG3 POP POP POP JUMP JUMPDEST PUSH1 0x1 PUSH1 0x1 PUSH1 0xA0 SHL SUB DUP4 DUP2 AND PUSH1 0x0 SWAP1 DUP2 MSTORE PUSH1 0x1 PUSH1 0x20 SWAP1 DUP2 MSTORE PUSH1 0x40 DUP1 DUP4 KECCAK256 SWAP4 DUP7 AND DUP4 MSTORE SWAP3 SWAP1 MSTORE KECCAK256 SLOAD PUSH1 0x0 NOT DUP2 EQ PUSH2 0x549 JUMPI DUP2 DUP2 LT ISZERO PUSH2 0x53C JUMPI PUSH1 0x40 MLOAD PUSH3 0x461BCD PUSH1 0xE5 SHL DUP2 MSTORE PUSH1 0x20 PUSH1 0x4 DUP3 ADD MSTORE PUSH1 0x1E PUSH1 0x24 DUP3 ADD MSTORE PUSH32 0x45524332303A20696E63756666696369656E7420616C6C6F77616E6365200000 PUSH1 0x44 DUP3 ADD MSTORE PUSH1 0x64 ADD PUSH2 0x327 JUMP JUMPDEST PUSH2 0x549 DUP5 DUP5 DUP5 DUP5 SUB PUSH2 0x392 JUMP JUMPDEST POP POP POP POP JUMP JUMPDEST PUSH1 0x1 PUSH1 0x1 PUSH1 0xA0 SHL SUB DUP4 AND PUSH2 0x5B3 JUMPI PUSH1 0x40 MLOAD PUSH3 0x461BCD PUSH1 0xE5 SHL DUP2 MSTORE PUSH1 0x20 PUSH1 0x4 DUP3 ADD MSTORE PUSH1 0x25 PUSH1 0x24 DUP3 ADD MSTORE PUSH32 0x45524332303A207472616E736665722066726F6D20746865207A65726F206164 PUSH1 0x44 DUP3 ADD MSTORE PUSH5 0x6472657373 PUSH1 0xD8 SHL PUSH1 0x64 DUP3 ADD MSTORE PUSH1 0x84 ADD PUSH2 0x327 JUMP JUMPDEST PUSH1 0x1 PUSH1 0x1 PUSH1 0xA0 SHL SUB DUP3 AND PUSH2 0x615 JUMPI PUSH1 0x40 MLOAD PUSH3 0x461BCD PUSH1 0xE5 SHL DUP2 MSTORE PUSH1 0x20 PUSH1 0x4 DUP3 ADD MSTORE PUSH1 0x23 PUSH1 0x24 DUP3 ADD MSTORE PUSH32 0x45524332303A207472616E7366657220746F20746865207A65726F2061646472 PUSH1 0x44 DUP3 ADD MSTORE PUSH3 0x657373 PUSH1 0xE8 SHL PUSH1 0x64 DUP3 ADD MSTORE PUSH1 0x84 ADD PUSH2 0x327 JUMP JUMPDEST PUSH1 0x1 PUSH1 0x1 PUSH1 0xA0 SHL SUB DUP4 AND PUSH1 0x0 SWAP1 DUP2 MSTORE PUSH1 0x20 DUP2 SWAP1 MSTORE PUSH1 0x40 SWAP1 KECCAK256 SLOAD DUP2 DUP2 LT ISZERO PUSH2 0x68D JUMPI PUSH1 0x40 MLOAD PUSH3 0x461BCD PUSH1 0xE5 SHL DUP2 MSTORE PUSH1 0x20 PUSH1 0x4 DUP3 ADD MSTORE PUSH1 0x26 PUSH1 0x24 DUP3 ADD MSTORE PUSH32 0x45726332303A207472616E7366657220616D6F756E7420657863656564732062 PUSH1 0x44 DUP3 ADD MSTORE PUSH6 0x616C616E6365 PUSH1 0xD0 SHL PUSH1 0x64 DUP3 ADD MSTORE PUSH1 0x84 ADD PUSH2 0x327 JUMP JUMPDEST PUSH1 0x1 PUSH1 0x1 PUSH1 0xA0 SHL SUB DUP5 DUP2 AND PUSH1 0x0 DUP2 DUP2 MSTORE PUSH1 0x20 DUP2 DUP2 MSTORE PUSH1 0x40 DUP1 DUP4 KECCAK256 DUP1 SLOAD DUP9 SWAP1 SUB SWAP1 SSTORE SWAP4 DUP8 AND DUP1 DUP4 MSTORE SWAP2 DUP5 SWAP1 KECCAK256 DUP1 SLOAD DUP8 ADD SWAP1 SSTORE SWAP3 MLOAD DUP6 DUP2 MSTORE SWAP1 SWAP3 PUSH32 0xDDF252AD1BE2C89B69C2B068FC378DAA952BA7F163C4A11628F55A4DF523B3EF SWAP2 ADD PUSH1 0x40 MLOAD DUP1 SWAP2 SUB SWAP1 LOG3 POP POP POP POP JUMP JUMPDEST PUSH1 0x0 PUSH1 0x20 DUP1 DUP4 MSTORE DUP4 MLOAD DUP1 DUP3 DUP6 ADD MSTORE PUSH1 0x0 JUMPDEST DUP2 DUP2 LT ISZERO PUSH2 0x723 JUMPI DUP6 DUP2 ADD DUP4 ADD MLOAD DUP6 DUP3 ADD PUSH1 0x40 ADD MSTORE DUP3 ADD PUSH2 0x707 JUMP JUMPDEST POP PUSH1 0x0 PUSH1 0x40 DUP3 DUP7 ADD ADD MSTORE PUSH1 0x40 PUSH1 0x1F NOT PUSH1 0x1F DUP4 ADD AND DUP6 ADD ADD SWAP3 POP POP POP SWAP3 SWAP2 POP POP JUMP JUMPDEST DUP1 CALLDATALOAD PUSH1 0x1 PUSH1 0x1 PUSH1 0xA0 SHL SUB DUP2 AND DUP2 EQ PUSH2 0x75B JUMPI PUSH1 0x0 DUP1 REVERT JUMPDEST SWAP2 SWAP1 POP JUMP JUMPDEST PUSH1 0x0 DUP1 PUSH1 0x40 DUP4 DUP6 SUB SLT ISZERO PUSH2 0x773 JUMPI PUSH1 0x0 DUP1 REVERT JUMPDEST PUSH2 0x77C DUP4 PUSH2 0x744 JUMP JUMPDEST SWAP5 PUSH1 0x20 SWAP4 SWAP1 SWAP4 ADD CALLDATALOAD SWAP4 POP POP POP JUMP JUMPDEST PUSH1 0x0 DUP1 PUSH1 0x0 PUSH1 0x60 DUP5 DUP7 SUB SLT ISZERO PUSH2 0x79F JUMPI PUSH1 0x0 DUP1 REVERT JUMPDEST PUSH2 0x7A8 DUP5 PUSH2 0x744 JUMP JUMPDEST SWAP3 POP PUSH2 0x7B6 PUSH1 0x20 DUP6 ADD PUSH2 0x744 JUMP JUMPDEST SWAP2 POP PUSH1 0x40 DUP5 ADD CALLDATALOAD SWAP1 POP SWAP3 POP SWAP3 POP SWAP3 JUMP JUMPDEST PUSH1 0x0 PUSH1 0x20 DUP3 DUP5 SUB SLT ISZERO PUSH2 0x7D8 JUMPI PUSH1 0x0 DUP1 REVERT JUMPDEST PUSH2 0x7E1 DUP3 PUSH2 0x744 JUMP JUMPDEST SWAP4 SWAP3 POP POP POP JUMP JUMPDEST PUSH1 0x0 DUP1 PUSH1 0x40 DUP4 DUP6 SUB SLT ISZERO PUSH2 0x7FB JUMPI PUSH1 0x0 DUP1 REVERT JUMPDEST PUSH2 0x804 DUP4 PUSH2 0x744 JUMP JUMPDEST SWAP2 POP PUSH2 0x812 PUSH1 0x20 DUP5 ADD PUSH2 0x744 JUMP JUMPDEST SWAP1 POP SWAP3 POP SWAP3 SWAP1 POP JUMP JUMPDEST PUSH1 0x0 DUP1 PUSH1 0x0 PUSH1 0x60 DUP5 DUP7 SUB SLT ISZERO PUSH2 0x830 JUMPI PUSH1 0x0 DUP1 REVERT JUMPDEST PUSH2 0x839 DUP5 PUSH2 0x744 JUMP JUMPDEST SWAP6 PUSH1 0x20 DUP6 ADD CALLDATALOAD SWAP6 POP PUSH1 0x40 SWAP1 SWAP5 ADD CALLDATALOAD SWAP4 SWAP3 POP POP POP JUMP JUMPDEST PUSH1 0x1 DUP2 DUP2 SHR SWAP1 DUP3 AND DUP1 PUSH2 0x862 JUMPI PUSH1 0x7F DUP3 AND SWAP2 POP JUMPDEST PUSH1 0x20 DUP3 LT DUP2 SUB PUSH2 0x882 JUMPI PUSH4 0x4E487B71 PUSH1 0xE0 SHL PUSH1 0x0 MSTORE PUSH1 0x22 PUSH1 0x4 MSTORE PUSH1 0x24 PUSH1 0x0 REVERT JUMPDEST POP SWAP2 SWAP1 POP JUMP JUMPDEST DUP1 DUP3 ADD DUP1 DUP3 GT ISZERO PUSH2 0x26C JUMPI PUSH4 0x4E487B71 PUSH1 0xE0 SHL PUSH1 0x0 MSTORE PUSH1 0x11 PUSH1 0x4 MSTORE PUSH1 0x24 PUSH1 0x0 REVERT INVALID LOG2 PUSH5 0x6970667358 0x22 SLT KECCAK256 0xCC PUSH20 0x6677FB5BF674881464F9C1DEF0EB48A0FD0091B5 0xD 0xD JUMPI DUP4 0xBE PUSH26 0x24C4D47C64736F6C634300081100330000000000000000000000 "
				},
				"gasEstimates": {
					"creation": {
						"codeDepositCost": "454200",
						"executionCost": "infinite",
						"totalCost": "infinite"
					},
					"external": {
						"allowance(address,address)": "infinite",
						"approve(address,uint256)": "24628",
						"balanceOf(address)": "2540",
						"decimals()": "266",
						"decreaseAllowance(address,uint256)": "26944",
						"increaseAllowance(address,uint256,uint256)": "27072",
						"name()": "infinite",
						"symbol()": "infinite",
						"totalSupply()": "2326",
						"transfer(address,uint256)": "53207",
						"transferFrom(address,address,uint256)": "infinite"
					},
					"internal": {
						"_approve(address,address,uint256)": "infinite",
						"_burn(address,uint256)": "infinite",
						"_mint(address,uint256)": "infinite",
						"_spendAllowance(address,address,uint256)": "infinite",
						"_transfer(address,address,uint256)": "infinite"
					}
				},
				"methodIdentifiers": {
					"allowance(address,address)": "dd62ed3e",
					"approve(address,uint256)": "095ea7b3",
					"balanceOf(address)": "70a08231",
					"decimals()": "313ce567",
					"decreaseAllowance(address,uint256)": "a457c2d7",
					"increaseAllowance(address,uint256,uint256)": "ff61011a",
					"name()": "06fdde03",
					"symbol()": "95d89b41",
					"totalSupply()": "18160ddd",
					"transfer(address,uint256)": "a9059cbb",
					"transferFrom(address,address,uint256)": "23b872dd"
				}
			},
			"storageLayout": {
				"storage": [
					{
						"astId": 139,
						"contract": "contracts/ERC20.sol:ERC20",
						"label": "_balances",
						"offset": 0,
						"slot": "0",
						"type": "t_mapping(t_address,t_uint256)"
					},
					{
						"astId": 145,
						"contract": "contracts/ERC20.sol:ERC20",
						"label": "_allowances",
						"offset": 0,
						"slot": "1",
						"type": "t_mapping(t_address,t_mapping(t_address,t_uint256))"
					},
					{
						"astId": 147,
						"contract": "contracts/ERC20.sol:ERC20",
						"label": "_name",
						"offset": 0,
						"slot": "2",
						"type": "t_string_storage"
					},
					{
						"astId": 149,
						"contract": "contracts/ERC20.sol:ERC20",
						"label": "_symbol",
						"offset": 0,
						"slot": "3",
						"type": "t_string_storage"
					},
					{
						"astId": 151,
						"contract": "contracts/ERC20.sol:ERC20",
						"label": "_totalSupply",
						"offset": 0,
						"slot": "4",
						"type": "t_uint256"
					}
				],
				"types": {
					"t_address": {
						"encoding": "inplace",
						"label": "address",
						"numberOfBytes": "20"
					},
					"t_mapping(t_address,t_mapping(t_address,t_uint256))": {
						"encoding": "mapping",
						"key": "t_address",
						"label": "mapping(address => mapping(address => uint256))",
						"numberOfBytes": "32",
						"value": "t_mapping(t_address,t_uint256)"
					},
					"t_mapping(t_address,t_uint256)": {
						"encoding": "mapping",
						"key": "t_address",
						"label": "mapping(address => uint256)",
						"numberOfBytes": "32",
						"value": "t_uint256"
					},
					"t_string_storage": {
						"encoding": "bytes",
						"label": "string",
						"numberOfBytes": "32"
					},
					"t_uint256": {
						"encoding": "inplace",
						"label": "uint256",
						"numberOfBytes": "32"
					}
				}
			},
			"userdoc": {
				"kind": "user",
				"methods": {},
				"version": 1
			}
		}
	}
}